{
  "_format": "hh-sol-artifact-1",
  "contractName": "TokensFacet",
  "sourceName": "contracts/facets/TokensFacet.sol",
  "abi": [
    {
      "inputs": [
        {
          "internalType": "address",
          "name": "account",
          "type": "address"
        },
        {
          "internalType": "uint256",
          "name": "id",
          "type": "uint256"
        }
      ],
      "name": "balanceOf",
      "outputs": [
        {
          "internalType": "uint256",
          "name": "",
          "type": "uint256"
        }
      ],
      "stateMutability": "view",
      "type": "function"
    },
    {
      "inputs": [
        {
          "internalType": "address[]",
          "name": "accounts",
          "type": "address[]"
        },
        {
          "internalType": "uint256[]",
          "name": "ids",
          "type": "uint256[]"
        }
      ],
      "name": "balanceOfBatch",
      "outputs": [
        {
          "internalType": "uint256[]",
          "name": "",
          "type": "uint256[]"
        }
      ],
      "stateMutability": "view",
      "type": "function"
    },
    {
      "inputs": [
        {
          "internalType": "address",
          "name": "account",
          "type": "address"
        },
        {
          "internalType": "address",
          "name": "operator",
          "type": "address"
        }
      ],
      "name": "isApprovedForAll",
      "outputs": [
        {
          "internalType": "bool",
          "name": "",
          "type": "bool"
        }
      ],
      "stateMutability": "view",
      "type": "function"
    },
    {
      "inputs": [
        {
          "internalType": "address",
          "name": "from",
          "type": "address"
        },
        {
          "internalType": "address",
          "name": "to",
          "type": "address"
        },
        {
          "internalType": "uint256[]",
          "name": "ids",
          "type": "uint256[]"
        },
        {
          "internalType": "uint256[]",
          "name": "amounts",
          "type": "uint256[]"
        },
        {
          "internalType": "bytes",
          "name": "data",
          "type": "bytes"
        }
      ],
      "name": "safeBatchTransferFrom",
      "outputs": [],
      "stateMutability": "nonpayable",
      "type": "function"
    },
    {
      "inputs": [
        {
          "internalType": "address",
          "name": "from",
          "type": "address"
        },
        {
          "internalType": "address",
          "name": "to",
          "type": "address"
        },
        {
          "internalType": "uint256",
          "name": "id",
          "type": "uint256"
        },
        {
          "internalType": "uint256",
          "name": "amount",
          "type": "uint256"
        },
        {
          "internalType": "bytes",
          "name": "data",
          "type": "bytes"
        }
      ],
      "name": "safeTransferFrom",
      "outputs": [],
      "stateMutability": "nonpayable",
      "type": "function"
    },
    {
      "inputs": [
        {
          "internalType": "address",
          "name": "operator",
          "type": "address"
        },
        {
          "internalType": "bool",
          "name": "approved",
          "type": "bool"
        }
      ],
      "name": "setApprovalForAll",
      "outputs": [],
      "stateMutability": "nonpayable",
      "type": "function"
    },
    {
      "inputs": [
        {
          "internalType": "string",
          "name": "_uri",
          "type": "string"
        }
      ],
      "name": "setUri",
      "outputs": [],
      "stateMutability": "nonpayable",
      "type": "function"
    },
    {
      "inputs": [],
      "name": "uri",
      "outputs": [
        {
          "internalType": "string",
          "name": "",
          "type": "string"
        }
      ],
      "stateMutability": "view",
      "type": "function"
    }
  ],
  "bytecode": "0x608060405234801561001057600080fd5b50612007806100206000396000f3fe608060405234801561001057600080fd5b50600436106100875760003560e01c8063a22cb4651161005b578063a22cb46514610124578063e985e9c514610140578063eac989f814610170578063f242432a1461018e57610087565b8062fdd58e1461008c5780632eb2c2d6146100bc5780634e1273f4146100d85780639b642de114610108575b600080fd5b6100a660048036038101906100a19190611116565b6101aa565b6040516100b39190611165565b60405180910390f35b6100d660048036038101906100d1919061138e565b61022c565b005b6100f260048036038101906100ed9190611520565b6102cd565b6040516100ff9190611656565b60405180910390f35b610122600480360381019061011d9190611719565b610325565b005b61013e6004803603810190610139919061179a565b6103dc565b005b61015a600480360381019061015591906117da565b6103f2565b6040516101679190611829565b60405180910390f35b610178610486565b60405161018591906118cc565b60405180910390f35b6101a860048036038101906101a391906118ee565b61051b565b005b60008073ffffffffffffffffffffffffffffffffffffffff168373ffffffffffffffffffffffffffffffffffffffff160361021a576040517f08c379a0000000000000000000000000000000000000000000000000000000008152600401610211906119f7565b60405180910390fd5b61022483836105bc565b905092915050565b610234610625565b73ffffffffffffffffffffffffffffffffffffffff168573ffffffffffffffffffffffffffffffffffffffff16148061027a575061027985610274610625565b6103f2565b5b6102b9576040517f08c379a00000000000000000000000000000000000000000000000000000000081526004016102b090611a89565b60405180910390fd5b6102c6858585858561062d565b5050505050565b60608151835114610313576040517f08c379a000000000000000000000000000000000000000000000000000000000815260040161030a90611b1b565b60405180910390fd5b61031d8383610952565b905092915050565b600060010160009054906101000a900473ffffffffffffffffffffffffffffffffffffffff1673ffffffffffffffffffffffffffffffffffffffff16610369610a27565b73ffffffffffffffffffffffffffffffffffffffff16146103bf576040517f08c379a00000000000000000000000000000000000000000000000000000000081526004016103b690611bad565b60405180910390fd5b80600060170190805190602001906103d8929190610fcb565b5050565b6103ee6103e7610625565b8383610ad7565b5050565b6000601860008473ffffffffffffffffffffffffffffffffffffffff1673ffffffffffffffffffffffffffffffffffffffff16815260200190815260200160002060008373ffffffffffffffffffffffffffffffffffffffff1673ffffffffffffffffffffffffffffffffffffffff16815260200190815260200160002060009054906101000a900460ff16905092915050565b60606000601701805461049890611bfc565b80601f01602080910402602001604051908101604052809291908181526020018280546104c490611bfc565b80156105115780601f106104e657610100808354040283529160200191610511565b820191906000526020600020905b8154815290600101906020018083116104f457829003601f168201915b5050505050905090565b610523610625565b73ffffffffffffffffffffffffffffffffffffffff168573ffffffffffffffffffffffffffffffffffffffff161480610569575061056885610563610625565b6103f2565b5b6105a8576040517f08c379a000000000000000000000000000000000000000000000000000000000815260040161059f90611a89565b60405180910390fd5b6105b58585858585610c43565b5050505050565b6000806105c7610ee2565b905080600701600084815260200190815260200160002060008573ffffffffffffffffffffffffffffffffffffffff1673ffffffffffffffffffffffffffffffffffffffff1681526020019081526020016000205491505092915050565b600033905090565b6000610637610ee2565b9050825184511461067d576040517f08c379a000000000000000000000000000000000000000000000000000000000815260040161067490611c9f565b60405180910390fd5b600073ffffffffffffffffffffffffffffffffffffffff168573ffffffffffffffffffffffffffffffffffffffff16036106ec576040517f08c379a00000000000000000000000000000000000000000000000000000000081526004016106e390611d31565b60405180910390fd5b60006106f6610625565b9050610706818888888888610ee7565b60005b85518110156108c057600086828151811061072757610726611d51565b5b60200260200101519050600086838151811061074657610745611d51565b5b60200260200101519050600085600701600084815260200190815260200160002060008c73ffffffffffffffffffffffffffffffffffffffff1673ffffffffffffffffffffffffffffffffffffffff168152602001908152602001600020549050818110156107ea576040517f08c379a00000000000000000000000000000000000000000000000000000000081526004016107e190611df2565b60405180910390fd5b81810386600701600085815260200190815260200160002060008d73ffffffffffffffffffffffffffffffffffffffff1673ffffffffffffffffffffffffffffffffffffffff168152602001908152602001600020819055508186600701600085815260200190815260200160002060008c73ffffffffffffffffffffffffffffffffffffffff1673ffffffffffffffffffffffffffffffffffffffff16815260200190815260200160002060008282546108a59190611e41565b92505081905550505050806108b990611e97565b9050610709565b508573ffffffffffffffffffffffffffffffffffffffff168773ffffffffffffffffffffffffffffffffffffffff168273ffffffffffffffffffffffffffffffffffffffff167f4a39dc06d4c0dbc64b70af90fd698a233a518aa5d07e595d983b8c0526c8f7fb8888604051610937929190611edf565b60405180910390a46109498785610eef565b50505050505050565b60606000835167ffffffffffffffff81111561097157610970611196565b5b60405190808252806020026020018201604052801561099f5781602001602082028036833780820191505090505b50905060005b8451811015610a1c576109ec8582815181106109c4576109c3611d51565b5b60200260200101518583815181106109df576109de611d51565b5b60200260200101516105bc565b8282815181106109ff576109fe611d51565b5b60200260200101818152505080610a1590611e97565b90506109a5565b508091505092915050565b60003073ffffffffffffffffffffffffffffffffffffffff163373ffffffffffffffffffffffffffffffffffffffff1603610ad057600080368080601f016020809104026020016040519081016040528093929190818152602001838380828437600081840152601f19601f820116905080830192505050505050509050600080369050905073ffffffffffffffffffffffffffffffffffffffff818301511692505050610ad4565b3390505b90565b8173ffffffffffffffffffffffffffffffffffffffff168373ffffffffffffffffffffffffffffffffffffffff1603610b45576040517f08c379a0000000000000000000000000000000000000000000000000000000008152600401610b3c90611f88565b60405180910390fd5b80601860008573ffffffffffffffffffffffffffffffffffffffff1673ffffffffffffffffffffffffffffffffffffffff16815260200190815260200160002060008473ffffffffffffffffffffffffffffffffffffffff1673ffffffffffffffffffffffffffffffffffffffff16815260200190815260200160002060006101000a81548160ff0219169083151502179055508173ffffffffffffffffffffffffffffffffffffffff168373ffffffffffffffffffffffffffffffffffffffff167f17307eab39ab6107e8899845ad3d59bd9653f200f220920489ca2b5937696c3183604051610c369190611829565b60405180910390a3505050565b6000610c4d610ee2565b9050600073ffffffffffffffffffffffffffffffffffffffff168573ffffffffffffffffffffffffffffffffffffffff1603610cbe576040517f08c379a0000000000000000000000000000000000000000000000000000000008152600401610cb590611d31565b60405180910390fd5b6000610cc8610625565b90506000610cd586610f51565b90506000610ce286610f51565b9050610cf2838a8a85858a610ee7565b600084600701600089815260200190815260200160002060008b73ffffffffffffffffffffffffffffffffffffffff1673ffffffffffffffffffffffffffffffffffffffff16815260200190815260200160002054905086811015610d8c576040517f08c379a0000000000000000000000000000000000000000000000000000000008152600401610d8390611df2565b60405180910390fd5b8681038560070160008a815260200190815260200160002060008c73ffffffffffffffffffffffffffffffffffffffff1673ffffffffffffffffffffffffffffffffffffffff16815260200190815260200160002081905550868560070160008a815260200190815260200160002060008b73ffffffffffffffffffffffffffffffffffffffff1673ffffffffffffffffffffffffffffffffffffffff1681526020019081526020016000206000828254610e479190611e41565b925050819055508873ffffffffffffffffffffffffffffffffffffffff168a73ffffffffffffffffffffffffffffffffffffffff168573ffffffffffffffffffffffffffffffffffffffff167fc3d58168c5ae7397731d063d5bbf3d657854427343f4c083240f7aacaa2d0f628b8b604051610ec4929190611fa8565b60405180910390a4610ed68a83610eef565b50505050505050505050565b600090565b505050505050565b600073ffffffffffffffffffffffffffffffffffffffff168273ffffffffffffffffffffffffffffffffffffffff1603610f4d576000610f2d610ee2565b9050815181600a016000828254610f449190611e41565b92505081905550505b5050565b60606000600167ffffffffffffffff811115610f7057610f6f611196565b5b604051908082528060200260200182016040528015610f9e5781602001602082028036833780820191505090505b5090508281600081518110610fb657610fb5611d51565b5b60200260200101818152505080915050919050565b828054610fd790611bfc565b90600052602060002090601f016020900481019282610ff95760008555611040565b82601f1061101257805160ff1916838001178555611040565b82800160010185558215611040579182015b8281111561103f578251825591602001919060010190611024565b5b50905061104d9190611051565b5090565b5b8082111561106a576000816000905550600101611052565b5090565b6000604051905090565b600080fd5b600080fd5b600073ffffffffffffffffffffffffffffffffffffffff82169050919050565b60006110ad82611082565b9050919050565b6110bd816110a2565b81146110c857600080fd5b50565b6000813590506110da816110b4565b92915050565b6000819050919050565b6110f3816110e0565b81146110fe57600080fd5b50565b600081359050611110816110ea565b92915050565b6000806040838503121561112d5761112c611078565b5b600061113b858286016110cb565b925050602061114c85828601611101565b9150509250929050565b61115f816110e0565b82525050565b600060208201905061117a6000830184611156565b92915050565b600080fd5b6000601f19601f8301169050919050565b7f4e487b7100000000000000000000000000000000000000000000000000000000600052604160045260246000fd5b6111ce82611185565b810181811067ffffffffffffffff821117156111ed576111ec611196565b5b80604052505050565b600061120061106e565b905061120c82826111c5565b919050565b600067ffffffffffffffff82111561122c5761122b611196565b5b602082029050602081019050919050565b600080fd5b600061125561125084611211565b6111f6565b905080838252602082019050602084028301858111156112785761127761123d565b5b835b818110156112a1578061128d8882611101565b84526020840193505060208101905061127a565b5050509392505050565b600082601f8301126112c0576112bf611180565b5b81356112d0848260208601611242565b91505092915050565b600080fd5b600067ffffffffffffffff8211156112f9576112f8611196565b5b61130282611185565b9050602081019050919050565b82818337600083830152505050565b600061133161132c846112de565b6111f6565b90508281526020810184848401111561134d5761134c6112d9565b5b61135884828561130f565b509392505050565b600082601f83011261137557611374611180565b5b813561138584826020860161131e565b91505092915050565b600080600080600060a086880312156113aa576113a9611078565b5b60006113b8888289016110cb565b95505060206113c9888289016110cb565b945050604086013567ffffffffffffffff8111156113ea576113e961107d565b5b6113f6888289016112ab565b935050606086013567ffffffffffffffff8111156114175761141661107d565b5b611423888289016112ab565b925050608086013567ffffffffffffffff8111156114445761144361107d565b5b61145088828901611360565b9150509295509295909350565b600067ffffffffffffffff82111561147857611477611196565b5b602082029050602081019050919050565b600061149c6114978461145d565b6111f6565b905080838252602082019050602084028301858111156114bf576114be61123d565b5b835b818110156114e857806114d488826110cb565b8452602084019350506020810190506114c1565b5050509392505050565b600082601f83011261150757611506611180565b5b8135611517848260208601611489565b91505092915050565b6000806040838503121561153757611536611078565b5b600083013567ffffffffffffffff8111156115555761155461107d565b5b611561858286016114f2565b925050602083013567ffffffffffffffff8111156115825761158161107d565b5b61158e858286016112ab565b9150509250929050565b600081519050919050565b600082825260208201905092915050565b6000819050602082019050919050565b6115cd816110e0565b82525050565b60006115df83836115c4565b60208301905092915050565b6000602082019050919050565b600061160382611598565b61160d81856115a3565b9350611618836115b4565b8060005b8381101561164957815161163088826115d3565b975061163b836115eb565b92505060018101905061161c565b5085935050505092915050565b6000602082019050818103600083015261167081846115f8565b905092915050565b600067ffffffffffffffff82111561169357611692611196565b5b61169c82611185565b9050602081019050919050565b60006116bc6116b784611678565b6111f6565b9050828152602081018484840111156116d8576116d76112d9565b5b6116e384828561130f565b509392505050565b600082601f830112611700576116ff611180565b5b81356117108482602086016116a9565b91505092915050565b60006020828403121561172f5761172e611078565b5b600082013567ffffffffffffffff81111561174d5761174c61107d565b5b611759848285016116eb565b91505092915050565b60008115159050919050565b61177781611762565b811461178257600080fd5b50565b6000813590506117948161176e565b92915050565b600080604083850312156117b1576117b0611078565b5b60006117bf858286016110cb565b92505060206117d085828601611785565b9150509250929050565b600080604083850312156117f1576117f0611078565b5b60006117ff858286016110cb565b9250506020611810858286016110cb565b9150509250929050565b61182381611762565b82525050565b600060208201905061183e600083018461181a565b92915050565b600081519050919050565b600082825260208201905092915050565b60005b8381101561187e578082015181840152602081019050611863565b8381111561188d576000848401525b50505050565b600061189e82611844565b6118a8818561184f565b93506118b8818560208601611860565b6118c181611185565b840191505092915050565b600060208201905081810360008301526118e68184611893565b905092915050565b600080600080600060a0868803121561190a57611909611078565b5b6000611918888289016110cb565b9550506020611929888289016110cb565b945050604061193a88828901611101565b935050606061194b88828901611101565b925050608086013567ffffffffffffffff81111561196c5761196b61107d565b5b61197888828901611360565b9150509295509295909350565b7f455243313135353a2061646472657373207a65726f206973206e6f742061207660008201527f616c6964206f776e657200000000000000000000000000000000000000000000602082015250565b60006119e1602a8361184f565b91506119ec82611985565b604082019050919050565b60006020820190508181036000830152611a10816119d4565b9050919050565b7f455243313135353a2063616c6c6572206973206e6f7420746f6b656e206f776e60008201527f6572206e6f7220617070726f7665640000000000000000000000000000000000602082015250565b6000611a73602f8361184f565b9150611a7e82611a17565b604082019050919050565b60006020820190508181036000830152611aa281611a66565b9050919050565b7f455243313135353a206163636f756e747320616e6420696473206c656e67746860008201527f206d69736d617463680000000000000000000000000000000000000000000000602082015250565b6000611b0560298361184f565b9150611b1082611aa9565b604082019050919050565b60006020820190508181036000830152611b3481611af8565b9050919050565b7f4e4f545f414c4c4f5745443a204f6e6c792047616c6c696f6e2063616e20636160008201527f6c6c20746869732066756e6374696f6e00000000000000000000000000000000602082015250565b6000611b9760308361184f565b9150611ba282611b3b565b604082019050919050565b60006020820190508181036000830152611bc681611b8a565b9050919050565b7f4e487b7100000000000000000000000000000000000000000000000000000000600052602260045260246000fd5b60006002820490506001821680611c1457607f821691505b602082108103611c2757611c26611bcd565b5b50919050565b7f455243313135353a2069647320616e6420616d6f756e7473206c656e6774682060008201527f6d69736d61746368000000000000000000000000000000000000000000000000602082015250565b6000611c8960288361184f565b9150611c9482611c2d565b604082019050919050565b60006020820190508181036000830152611cb881611c7c565b9050919050565b7f455243313135353a207472616e7366657220746f20746865207a65726f20616460008201527f6472657373000000000000000000000000000000000000000000000000000000602082015250565b6000611d1b60258361184f565b9150611d2682611cbf565b604082019050919050565b60006020820190508181036000830152611d4a81611d0e565b9050919050565b7f4e487b7100000000000000000000000000000000000000000000000000000000600052603260045260246000fd5b7f455243313135353a20696e73756666696369656e742062616c616e636520666f60008201527f72207472616e7366657200000000000000000000000000000000000000000000602082015250565b6000611ddc602a8361184f565b9150611de782611d80565b604082019050919050565b60006020820190508181036000830152611e0b81611dcf565b9050919050565b7f4e487b7100000000000000000000000000000000000000000000000000000000600052601160045260246000fd5b6000611e4c826110e0565b9150611e57836110e0565b9250827fffffffffffffffffffffffffffffffffffffffffffffffffffffffffffffffff03821115611e8c57611e8b611e12565b5b828201905092915050565b6000611ea2826110e0565b91507fffffffffffffffffffffffffffffffffffffffffffffffffffffffffffffffff8203611ed457611ed3611e12565b5b600182019050919050565b60006040820190508181036000830152611ef981856115f8565b90508181036020830152611f0d81846115f8565b90509392505050565b7f455243313135353a2073657474696e6720617070726f76616c2073746174757360008201527f20666f722073656c660000000000000000000000000000000000000000000000602082015250565b6000611f7260298361184f565b9150611f7d82611f16565b604082019050919050565b60006020820190508181036000830152611fa181611f65565b9050919050565b6000604082019050611fbd6000830185611156565b611fca6020830184611156565b939250505056fea2646970667358221220732eafd97860b552607ad1f1f19cf3273ece1671eb0790f34847505e53663d0364736f6c634300080d0033",
  "linkReferences": {},
  "deployedLinkReferences": {}
}