{
  "_format": "hh-sol-artifact-1",
  "contractName": "DiamondInit",
  "sourceName": "contracts/upgradeInitializers/DiamondInit.sol",
  "abi": [
    {
      "inputs": [
        {
          "components": [
            {
              "internalType": "address",
              "name": "gallionLabs",
              "type": "address"
            },
            {
              "internalType": "address[]",
              "name": "guildAdmins",
              "type": "address[]"
            },
            {
              "internalType": "uint8",
              "name": "rewardRatioFromIncome",
              "type": "uint8"
            },
            {
              "internalType": "address",
              "name": "guildMainWallet",
              "type": "address"
            }
          ],
          "internalType": "struct DiamondInit.Args",
          "name": "_args",
          "type": "tuple"
        }
      ],
      "name": "init",
      "outputs": [],
      "stateMutability": "nonpayable",
      "type": "function"
    }
  ],
  "bytecode": "0x608060405234801561001057600080fd5b50611043806100206000396000f3fe608060405234801561001057600080fd5b506004361061002b5760003560e01c80634c63e3d514610030575b600080fd5b61004a60048036038101906100459190610d69565b61004c565b005b8060000151600060010160006101000a81548173ffffffffffffffffffffffffffffffffffffffff021916908373ffffffffffffffffffffffffffffffffffffffff1602179055506000816040015160ff16101580156100b457506064816040015160ff1611155b6100f3576040517f08c379a00000000000000000000000000000000000000000000000000000000081526004016100ea90610e35565b60405180910390fd5b80604001516000600f0160006101000a81548160ff021916908360ff1602179055506000806003018190555060016000600501600080600481111561013b5761013a610e55565b5b600481111561014d5761014c610e55565b5b8152602001908152602001600020819055506002600060050160006001600481111561017c5761017b610e55565b5b600481111561018e5761018d610e55565b5b815260200190815260200160002081905550600360006005016000600260048111156101bd576101bc610e55565b5b60048111156101cf576101ce610e55565b5b815260200190815260200160002081905550600460006005016000600360048111156101fe576101fd610e55565b5b60048111156102105761020f610e55565b5b81526020019081526020016000208190555060056000600501600060048081111561023e5761023d610e55565b5b60048111156102505761024f610e55565b5b815260200190815260200160002081905550604b6000601001600080600481111561027e5761027d610e55565b5b60048111156102905761028f610e55565b5b815260200190815260200160002060006101000a81548160ff021916908360ff160217905550601960006010016000600160048111156102d3576102d2610e55565b5b60048111156102e5576102e4610e55565b5b815260200190815260200160002060006101000a81548160ff021916908360ff16021790555060086000601101600080600481111561032757610326610e55565b5b600481111561033957610338610e55565b5b815260200190815260200160002060006101000a81548160ff021916908360ff1602179055506010600060110160006001600481111561037c5761037b610e55565b5b600481111561038e5761038d610e55565b5b815260200190815260200160002060006101000a81548160ff021916908360ff160217905550602060006011016000600260048111156103d1576103d0610e55565b5b60048111156103e3576103e2610e55565b5b815260200190815260200160002060006101000a81548160ff021916908360ff1602179055506040600060110160006003600481111561042657610425610e55565b5b600481111561043857610437610e55565b5b815260200190815260200160002060006101000a81548160ff021916908360ff16021790555060646000601101600060048081111561047a57610479610e55565b5b600481111561048c5761048b610e55565b5b815260200190815260200160002060006101000a81548160ff021916908360ff1602179055506064600060090160008060048111156104ce576104cd610e55565b5b60048111156104e0576104df610e55565b5b81526020019081526020016000208190555060c8600060090160006001600481111561050f5761050e610e55565b5b600481111561052157610520610e55565b5b815260200190815260200160002081905550610190600060090160006002600481111561055157610550610e55565b5b600481111561056357610562610e55565b5b8152602001908152602001600020819055506103e8600060090160006003600481111561059357610592610e55565b5b60048111156105a5576105a4610e55565b5b815260200190815260200160002081905550611388600060090160006004808111156105d4576105d3610e55565b5b60048111156105e6576105e5610e55565b5b815260200190815260200160002081905550621e8480600060140160006101000a81548163ffffffff021916908363ffffffff16021790555060008060150181905550600080600c0181905550600080600d018190555060005b8160200151518110156106dc57604051806020016040528042815250600060120160008460200151848151811061067a57610679610e84565b5b602002602001015173ffffffffffffffffffffffffffffffffffffffff1673ffffffffffffffffffffffffffffffffffffffff1681526020019081526020016000206000820151816000015590505080806106d490610eec565b915050610640565b506107516040518060400160405280600e81526020017f47616c6c696f6e4469616d6f6e640000000000000000000000000000000000008152506040518060400160405280600281526020017f5631000000000000000000000000000000000000000000000000000000000000815250610a25565b60008001819055506000610763610a92565b905060018160020160007f01ffc9a7000000000000000000000000000000000000000000000000000000007bffffffffffffffffffffffffffffffffffffffffffffffffffffffff19167bffffffffffffffffffffffffffffffffffffffffffffffffffffffff1916815260200190815260200160002060006101000a81548160ff02191690831515021790555060018160020160007f1f931c1c000000000000000000000000000000000000000000000000000000007bffffffffffffffffffffffffffffffffffffffffffffffffffffffff19167bffffffffffffffffffffffffffffffffffffffffffffffffffffffff1916815260200190815260200160002060006101000a81548160ff02191690831515021790555060018160020160007f48e2b093000000000000000000000000000000000000000000000000000000007bffffffffffffffffffffffffffffffffffffffffffffffffffffffff19167bffffffffffffffffffffffffffffffffffffffffffffffffffffffff1916815260200190815260200160002060006101000a81548160ff02191690831515021790555060018160020160007f7f5828d0000000000000000000000000000000000000000000000000000000007bffffffffffffffffffffffffffffffffffffffffffffffffffffffff19167bffffffffffffffffffffffffffffffffffffffffffffffffffffffff1916815260200190815260200160002060006101000a81548160ff02191690831515021790555060018160020160007fd9b67a26000000000000000000000000000000000000000000000000000000007bffffffffffffffffffffffffffffffffffffffffffffffffffffffff19167bffffffffffffffffffffffffffffffffffffffffffffffffffffffff1916815260200190815260200160002060006101000a81548160ff0219169083151502179055505050565b60006040518060800160405280604f8152602001610fbf604f91398051906020012083805190602001208380519060200120610a5f610abf565b30604051602001610a74959493929190610f6b565b60405160208183030381529060405280519060200120905092915050565b6000807fc8fcad8db84d3cc18b4c41d551ea0ee66dd599cde068d998e57d5e09332c131c90508091505090565b600046905090565b6000604051905090565b600080fd5b600080fd5b600080fd5b6000601f19601f8301169050919050565b7f4e487b7100000000000000000000000000000000000000000000000000000000600052604160045260246000fd5b610b2982610ae0565b810181811067ffffffffffffffff82111715610b4857610b47610af1565b5b80604052505050565b6000610b5b610ac7565b9050610b678282610b20565b919050565b600080fd5b600073ffffffffffffffffffffffffffffffffffffffff82169050919050565b6000610b9c82610b71565b9050919050565b610bac81610b91565b8114610bb757600080fd5b50565b600081359050610bc981610ba3565b92915050565b600080fd5b600067ffffffffffffffff821115610bef57610bee610af1565b5b602082029050602081019050919050565b600080fd5b6000610c18610c1384610bd4565b610b51565b90508083825260208201905060208402830185811115610c3b57610c3a610c00565b5b835b81811015610c645780610c508882610bba565b845260208401935050602081019050610c3d565b5050509392505050565b600082601f830112610c8357610c82610bcf565b5b8135610c93848260208601610c05565b91505092915050565b600060ff82169050919050565b610cb281610c9c565b8114610cbd57600080fd5b50565b600081359050610ccf81610ca9565b92915050565b600060808284031215610ceb57610cea610adb565b5b610cf56080610b51565b90506000610d0584828501610bba565b600083015250602082013567ffffffffffffffff811115610d2957610d28610b6c565b5b610d3584828501610c6e565b6020830152506040610d4984828501610cc0565b6040830152506060610d5d84828501610bba565b60608301525092915050565b600060208284031215610d7f57610d7e610ad1565b5b600082013567ffffffffffffffff811115610d9d57610d9c610ad6565b5b610da984828501610cd5565b91505092915050565b600082825260208201905092915050565b7f496e76616c69642072657761726420726174696f2c206d75737420626520626560008201527f747765656e203020616e64203130300000000000000000000000000000000000602082015250565b6000610e1f602f83610db2565b9150610e2a82610dc3565b604082019050919050565b60006020820190508181036000830152610e4e81610e12565b9050919050565b7f4e487b7100000000000000000000000000000000000000000000000000000000600052602160045260246000fd5b7f4e487b7100000000000000000000000000000000000000000000000000000000600052603260045260246000fd5b7f4e487b7100000000000000000000000000000000000000000000000000000000600052601160045260246000fd5b6000819050919050565b6000610ef782610ee2565b91507fffffffffffffffffffffffffffffffffffffffffffffffffffffffffffffffff8203610f2957610f28610eb3565b5b600182019050919050565b6000819050919050565b610f4781610f34565b82525050565b610f5681610ee2565b82525050565b610f6581610b91565b82525050565b600060a082019050610f806000830188610f3e565b610f8d6020830187610f3e565b610f9a6040830186610f3e565b610fa76060830185610f4d565b610fb46080830184610f5c565b969550505050505056fe454950373132446f6d61696e28737472696e67206e616d652c737472696e672076657273696f6e2c75696e743235362073616c742c6164647265737320766572696679696e67436f6e747261637429a2646970667358221220e1a8ac1eec8b870eba219775d44c243e2780fcfd1fa26ea25c59d41072f7e9cc64736f6c634300080d0033",
  "linkReferences": {},
  "deployedLinkReferences": {}
}