{
  "_format": "hh-sol-artifact-1",
  "contractName": "TreasuryFacet",
  "sourceName": "contracts/facets/TreasuryFacet.sol",
  "abi": [
    {
      "inputs": [],
      "name": "getRewardRatioFromIncome",
      "outputs": [
        {
          "internalType": "uint256",
          "name": "_rewardRatio",
          "type": "uint256"
        }
      ],
      "stateMutability": "view",
      "type": "function"
    },
    {
      "inputs": [
        {
          "internalType": "uint8",
          "name": "_rewardRatioFromIncome",
          "type": "uint8"
        }
      ],
      "name": "setRewardRatioFromIncome",
      "outputs": [],
      "stateMutability": "nonpayable",
      "type": "function"
    }
  ],
  "bytecode": "0x608060405234801561001057600080fd5b50610451806100206000396000f3fe608060405234801561001057600080fd5b50600436106100365760003560e01c80637ee79c2f1461003b578063ed40763d14610059575b600080fd5b610043610075565b6040516100509190610260565b60405180910390f35b610073600480360381019061006e91906102b9565b610091565b005b600080600f0160009054906101000a900460ff1660ff16905090565b60008060120160006100a1610197565b73ffffffffffffffffffffffffffffffffffffffff1673ffffffffffffffffffffffffffffffffffffffff168152602001908152602001600020600001541161011f576040517f08c379a000000000000000000000000000000000000000000000000000000000815260040161011690610369565b60405180910390fd5b60008160ff1610158015610137575060648160ff1611155b610176576040517f08c379a000000000000000000000000000000000000000000000000000000000815260040161016d906103fb565b60405180910390fd5b806000600f0160006101000a81548160ff021916908360ff16021790555050565b60003073ffffffffffffffffffffffffffffffffffffffff163373ffffffffffffffffffffffffffffffffffffffff160361024057600080368080601f016020809104026020016040519081016040528093929190818152602001838380828437600081840152601f19601f820116905080830192505050505050509050600080369050905073ffffffffffffffffffffffffffffffffffffffff818301511692505050610244565b3390505b90565b6000819050919050565b61025a81610247565b82525050565b60006020820190506102756000830184610251565b92915050565b600080fd5b600060ff82169050919050565b61029681610280565b81146102a157600080fd5b50565b6000813590506102b38161028d565b92915050565b6000602082840312156102cf576102ce61027b565b5b60006102dd848285016102a4565b91505092915050565b600082825260208201905092915050565b7f4e4f545f414c4c4f5745443a204f6e6c79206775696c642061646d696e73206360008201527f616e2063616c6c20746869732066756e6374696f6e0000000000000000000000602082015250565b60006103536035836102e6565b915061035e826102f7565b604082019050919050565b6000602082019050818103600083015261038281610346565b9050919050565b7f496e76616c69642072657761726420726174696f2c206d75737420626520626560008201527f747765656e203020616e64203130300000000000000000000000000000000000602082015250565b60006103e5602f836102e6565b91506103f082610389565b604082019050919050565b60006020820190508181036000830152610414816103d8565b905091905056fea2646970667358221220bba094903c8b79f0dd38c818c7376f451b7122fc7b1386dbd3265917df3fb56e64736f6c634300080d0033",
  "linkReferences": {},
  "deployedLinkReferences": {}
}