{
  "_format": "hh-sol-artifact-1",
  "contractName": "GuildDiamond",
  "sourceName": "contracts/GuildDiamond.sol",
  "abi": [
    {
      "inputs": [
        {
          "internalType": "address",
          "name": "_contractOwner",
          "type": "address"
        },
        {
          "internalType": "address",
          "name": "_diamondCutFacet",
          "type": "address"
        }
      ],
      "stateMutability": "payable",
      "type": "constructor"
    },
    {
      "stateMutability": "payable",
      "type": "fallback"
    },
    {
      "inputs": [],
      "name": "selfDestruct",
      "outputs": [],
      "stateMutability": "nonpayable",
      "type": "function"
    },
    {
      "stateMutability": "payable",
      "type": "receive"
    }
  ],
  "bytecode": "0x608060405260405162004baf38038062004baf8339818101604052810190620000299190620016d2565b6200003f826200030a60201b620003621760201c565b6000600167ffffffffffffffff8111156200005f576200005e62001719565b5b6040519080825280602002602001820160405280156200009c57816020015b620000886200153d565b8152602001906001900390816200007e5790505b5090506000600167ffffffffffffffff811115620000bf57620000be62001719565b5b604051908082528060200260200182016040528015620000ee5781602001602082028036833780820191505090505b509050631f931c1c60e01b8160008151811062000110576200010f62001748565b5b60200260200101907bffffffffffffffffffffffffffffffffffffffffffffffffffffffff191690817bffffffffffffffffffffffffffffffffffffffffffffffffffffffff19168152505060405180606001604052808473ffffffffffffffffffffffffffffffffffffffff168152602001600060028111156200019a576200019962001777565b5b81526020018281525082600081518110620001ba57620001b962001748565b5b6020026020010181905250620001ed82600060405180602001604052806000815250620003e960201b620004391760201c565b6040518060a00160405280600060048111156200020f576200020e62001777565b5b600481111562000224576200022362001777565b5b81526020016001600481111562000240576200023f62001777565b5b600481111562000255576200025462001777565b5b81526020016002600481111562000271576200027062001777565b5b600481111562000286576200028562001777565b5b815260200160036004811115620002a257620002a162001777565b5b6004811115620002b757620002b662001777565b5b8152602001600480811115620002d257620002d162001777565b5b6004811115620002e757620002e662001777565b5b8152506000600401906005620002ff92919062001589565b505050505062002574565b60006200031c6200066d60201b60201c565b905060008160030160009054906101000a900473ffffffffffffffffffffffffffffffffffffffff169050828260030160006101000a81548173ffffffffffffffffffffffffffffffffffffffff021916908373ffffffffffffffffffffffffffffffffffffffff1602179055508273ffffffffffffffffffffffffffffffffffffffff168173ffffffffffffffffffffffffffffffffffffffff167f8be0079c531659141344cd1fd0a4f28419497f9722a3daafe3b4186f6b6457e060405160405180910390a3505050565b60005b8351811015620006185760008482815181106200040e576200040d62001748565b5b60200260200101516020015190506000600281111562000433576200043262001777565b5b81600281111562000449576200044862001777565b5b03620004a957620004a385838151811062000469576200046862001748565b5b6020026020010151600001518684815181106200048b576200048a62001748565b5b6020026020010151604001516200069a60201b60201c565b62000601565b60016002811115620004c057620004bf62001777565b5b816002811115620004d657620004d562001777565b5b03620005365762000530858381518110620004f657620004f562001748565b5b60200260200101516000015186848151811062000518576200051762001748565b5b60200260200101516040015162000a2560201b60201c565b62000600565b6002808111156200054c576200054b62001777565b5b81600281111562000562576200056162001777565b5b03620005c257620005bc85838151811062000582576200058162001748565b5b602002602001015160000151868481518110620005a457620005a362001748565b5b60200260200101516040015162000dce60201b60201c565b620005ff565b6040517f08c379a0000000000000000000000000000000000000000000000000000000008152600401620005f6906200182d565b60405180910390fd5b5b5b5080806200060f9062001888565b915050620003ec565b507f8faa70878671ccd212d20771b795c50af8fd3ff6cf27f4bde57e5d4de0aeb6738383836040516200064e9392919062001c0c565b60405180910390a1620006688282620012ba60201b60201c565b505050565b6000807fc8fcad8db84d3cc18b4c41d551ea0ee66dd599cde068d998e57d5e09332c131c90508091505090565b6000815111620006e1576040517f08c379a0000000000000000000000000000000000000000000000000000000008152600401620006d89062001ccd565b60405180910390fd5b6000620006f36200066d60201b60201c565b9050600081600101805490509050600073ffffffffffffffffffffffffffffffffffffffff168473ffffffffffffffffffffffffffffffffffffffff160362000773576040517f08c379a00000000000000000000000000000000000000000000000000000000081526004016200076a9062001d65565b60405180910390fd5b6200079e8460405180606001604052806024815260200162004b3b60249139620014e860201b60201c565b60005b835181101562000a1e576000848281518110620007c357620007c262001748565b5b602002602001015190506000846000016000837bffffffffffffffffffffffffffffffffffffffffffffffffffffffff19167bffffffffffffffffffffffffffffffffffffffffffffffffffffffff1916815260200190815260200160002060000160009054906101000a900473ffffffffffffffffffffffffffffffffffffffff169050600073ffffffffffffffffffffffffffffffffffffffff168173ffffffffffffffffffffffffffffffffffffffff1614620008ba576040517f08c379a0000000000000000000000000000000000000000000000000000000008152600401620008b19062001dfd565b60405180910390fd5b60405180604001604052808873ffffffffffffffffffffffffffffffffffffffff1681526020018561ffff16815250856000016000847bffffffffffffffffffffffffffffffffffffffffffffffffffffffff19167bffffffffffffffffffffffffffffffffffffffffffffffffffffffff1916815260200190815260200160002060008201518160000160006101000a81548173ffffffffffffffffffffffffffffffffffffffff021916908373ffffffffffffffffffffffffffffffffffffffff16021790555060208201518160000160146101000a81548161ffff021916908361ffff160217905550905050846001018290806001815401808255809150506001900390600052602060002090600891828204019190066004029091909190916101000a81548163ffffffff021916908360e01c0217905550838062000a039062001e2d565b9450505050808062000a159062001888565b915050620007a1565b5050505050565b600081511162000a6c576040517f08c379a000000000000000000000000000000000000000000000000000000000815260040162000a639062001ccd565b60405180910390fd5b600062000a7e6200066d60201b60201c565b9050600073ffffffffffffffffffffffffffffffffffffffff168373ffffffffffffffffffffffffffffffffffffffff160362000af2576040517f08c379a000000000000000000000000000000000000000000000000000000000815260040162000ae99062001ed2565b60405180910390fd5b62000b1d8360405180606001604052806028815260200162004b8760289139620014e860201b60201c565b60005b825181101562000dc857600083828151811062000b425762000b4162001748565b5b602002602001015190506000836000016000837bffffffffffffffffffffffffffffffffffffffffffffffffffffffff19167bffffffffffffffffffffffffffffffffffffffffffffffffffffffff1916815260200190815260200160002060000160009054906101000a900473ffffffffffffffffffffffffffffffffffffffff1690503073ffffffffffffffffffffffffffffffffffffffff168173ffffffffffffffffffffffffffffffffffffffff160362000c38576040517f08c379a000000000000000000000000000000000000000000000000000000000815260040162000c2f9062001f6a565b60405180910390fd5b8573ffffffffffffffffffffffffffffffffffffffff168173ffffffffffffffffffffffffffffffffffffffff160362000ca9576040517f08c379a000000000000000000000000000000000000000000000000000000000815260040162000ca09062002002565b60405180910390fd5b600073ffffffffffffffffffffffffffffffffffffffff168173ffffffffffffffffffffffffffffffffffffffff160362000d1b576040517f08c379a000000000000000000000000000000000000000000000000000000000815260040162000d12906200209a565b60405180910390fd5b85846000016000847bffffffffffffffffffffffffffffffffffffffffffffffffffffffff19167bffffffffffffffffffffffffffffffffffffffffffffffffffffffff1916815260200190815260200160002060000160006101000a81548173ffffffffffffffffffffffffffffffffffffffff021916908373ffffffffffffffffffffffffffffffffffffffff1602179055505050808062000dbf9062001888565b91505062000b20565b50505050565b600081511162000e15576040517f08c379a000000000000000000000000000000000000000000000000000000000815260040162000e0c9062001ccd565b60405180910390fd5b600062000e276200066d60201b60201c565b9050600081600101805490509050600073ffffffffffffffffffffffffffffffffffffffff168473ffffffffffffffffffffffffffffffffffffffff161462000ea7576040517f08c379a000000000000000000000000000000000000000000000000000000000815260040162000e9e9062002132565b60405180910390fd5b60005b8351811015620012b357600084828151811062000ecc5762000ecb62001748565b5b602002602001015190506000846000016000837bffffffffffffffffffffffffffffffffffffffffffffffffffffffff19167bffffffffffffffffffffffffffffffffffffffffffffffffffffffff191681526020019081526020016000206040518060400160405290816000820160009054906101000a900473ffffffffffffffffffffffffffffffffffffffff1673ffffffffffffffffffffffffffffffffffffffff1673ffffffffffffffffffffffffffffffffffffffff1681526020016000820160149054906101000a900461ffff1661ffff1661ffff16815250509050600073ffffffffffffffffffffffffffffffffffffffff16816000015173ffffffffffffffffffffffffffffffffffffffff160362001024576040517f08c379a00000000000000000000000000000000000000000000000000000000081526004016200101b90620021ca565b60405180910390fd5b3073ffffffffffffffffffffffffffffffffffffffff16816000015173ffffffffffffffffffffffffffffffffffffffff160362001099576040517f08c379a0000000000000000000000000000000000000000000000000000000008152600401620010909062002262565b60405180910390fd5b8380620010a69062002284565b94505083816020015161ffff1614620011c2576000856001018581548110620010d457620010d362001748565b5b90600052602060002090600891828204019190066004029054906101000a900460e01b90508086600101836020015161ffff16815481106200111b576200111a62001748565b5b90600052602060002090600891828204019190066004026101000a81548163ffffffff021916908360e01c02179055508160200151866000016000837bffffffffffffffffffffffffffffffffffffffffffffffffffffffff19167bffffffffffffffffffffffffffffffffffffffffffffffffffffffff1916815260200190815260200160002060000160146101000a81548161ffff021916908361ffff160217905550505b84600101805480620011d957620011d8620022b2565b5b60019003818190600052602060002090600891828204019190066004026101000a81549063ffffffff02191690559055846000016000837bffffffffffffffffffffffffffffffffffffffffffffffffffffffff19167bffffffffffffffffffffffffffffffffffffffffffffffffffffffff19168152602001908152602001600020600080820160006101000a81549073ffffffffffffffffffffffffffffffffffffffff02191690556000820160146101000a81549061ffff0219169055505050508080620012aa9062001888565b91505062000eaa565b5050505050565b600073ffffffffffffffffffffffffffffffffffffffff168273ffffffffffffffffffffffffffffffffffffffff16036200133c57600081511462001336576040517f08c379a00000000000000000000000000000000000000000000000000000000081526004016200132d9062002357565b60405180910390fd5b620014e4565b600081511162001383576040517f08c379a00000000000000000000000000000000000000000000000000000000081526004016200137a90620023ef565b60405180910390fd5b3073ffffffffffffffffffffffffffffffffffffffff168273ffffffffffffffffffffffffffffffffffffffff1614620013e357620013e28260405180606001604052806028815260200162004b5f60289139620014e860201b60201c565b5b6000808373ffffffffffffffffffffffffffffffffffffffff16836040516200140d919062002453565b600060405180830381855af49150503d80600081146200144a576040519150601f19603f3d011682016040523d82523d6000602084013e6200144f565b606091505b509150915081620014e157600081511115620014a457806040517f08c379a00000000000000000000000000000000000000000000000000000000081526004016200149b9190620024b8565b60405180910390fd5b6040517f08c379a0000000000000000000000000000000000000000000000000000000008152600401620014d89062002552565b60405180910390fd5b50505b5050565b6000823b905060008111829062001537576040517f08c379a00000000000000000000000000000000000000000000000000000000081526004016200152e9190620024b8565b60405180910390fd5b50505050565b6040518060600160405280600073ffffffffffffffffffffffffffffffffffffffff168152602001600060028111156200157c576200157b62001777565b5b8152602001606081525090565b82805482825590600052602060002090601f01602090048101928215620016365791602002820160005b838211156200160557835183826101000a81548160ff02191690836004811115620015e357620015e262001777565b5b02179055509260200192600101602081600001049283019260010302620015b3565b8015620016345782816101000a81549060ff021916905560010160208160000104928301926001030262001605565b505b50905062001645919062001649565b5090565b5b80821115620016645760008160009055506001016200164a565b5090565b600080fd5b600073ffffffffffffffffffffffffffffffffffffffff82169050919050565b60006200169a826200166d565b9050919050565b620016ac816200168d565b8114620016b857600080fd5b50565b600081519050620016cc81620016a1565b92915050565b60008060408385031215620016ec57620016eb62001668565b5b6000620016fc85828601620016bb565b92505060206200170f85828601620016bb565b9150509250929050565b7f4e487b7100000000000000000000000000000000000000000000000000000000600052604160045260246000fd5b7f4e487b7100000000000000000000000000000000000000000000000000000000600052603260045260246000fd5b7f4e487b7100000000000000000000000000000000000000000000000000000000600052602160045260246000fd5b600082825260208201905092915050565b7f4c69624469616d6f6e644375743a20496e636f7272656374204661636574437560008201527f74416374696f6e00000000000000000000000000000000000000000000000000602082015250565b600062001815602783620017a6565b91506200182282620017b7565b604082019050919050565b60006020820190508181036000830152620018488162001806565b9050919050565b7f4e487b7100000000000000000000000000000000000000000000000000000000600052601160045260246000fd5b6000819050919050565b600062001895826200187e565b91507fffffffffffffffffffffffffffffffffffffffffffffffffffffffffffffffff8203620018ca57620018c96200184f565b5b600182019050919050565b600081519050919050565b600082825260208201905092915050565b6000819050602082019050919050565b6200190c816200168d565b82525050565b6003811062001926576200192562001777565b5b50565b6000819050620019398262001912565b919050565b60006200194b8262001929565b9050919050565b6200195d816200193e565b82525050565b600081519050919050565b600082825260208201905092915050565b6000819050602082019050919050565b60007fffffffff0000000000000000000000000000000000000000000000000000000082169050919050565b620019c6816200198f565b82525050565b6000620019da8383620019bb565b60208301905092915050565b6000602082019050919050565b600062001a008262001963565b62001a0c81856200196e565b935062001a19836200197f565b8060005b8381101562001a5057815162001a348882620019cc565b975062001a4183620019e6565b92505060018101905062001a1d565b5085935050505092915050565b600060608301600083015162001a77600086018262001901565b50602083015162001a8c602086018262001952565b506040830151848203604086015262001aa68282620019f3565b9150508091505092915050565b600062001ac1838362001a5d565b905092915050565b6000602082019050919050565b600062001ae382620018d5565b62001aef8185620018e0565b93508360208202850162001b0385620018f1565b8060005b8581101562001b45578484038952815162001b23858262001ab3565b945062001b308362001ac9565b925060208a0199505060018101905062001b07565b50829750879550505050505092915050565b62001b62816200168d565b82525050565b600081519050919050565b600082825260208201905092915050565b60005b8381101562001ba457808201518184015260208101905062001b87565b8381111562001bb4576000848401525b50505050565b6000601f19601f8301169050919050565b600062001bd88262001b68565b62001be4818562001b73565b935062001bf681856020860162001b84565b62001c018162001bba565b840191505092915050565b6000606082019050818103600083015262001c28818662001ad6565b905062001c39602083018562001b57565b818103604083015262001c4d818462001bcb565b9050949350505050565b7f4c69624469616d6f6e644375743a204e6f2073656c6563746f727320696e206660008201527f6163657420746f20637574000000000000000000000000000000000000000000602082015250565b600062001cb5602b83620017a6565b915062001cc28262001c57565b604082019050919050565b6000602082019050818103600083015262001ce88162001ca6565b9050919050565b7f4c69624469616d6f6e644375743a204164642066616365742063616e2774206260008201527f6520616464726573732830290000000000000000000000000000000000000000602082015250565b600062001d4d602c83620017a6565b915062001d5a8262001cef565b604082019050919050565b6000602082019050818103600083015262001d808162001d3e565b9050919050565b7f4c69624469616d6f6e644375743a2043616e2774206164642066756e6374696f60008201527f6e207468617420616c7265616479206578697374730000000000000000000000602082015250565b600062001de5603583620017a6565b915062001df28262001d87565b604082019050919050565b6000602082019050818103600083015262001e188162001dd6565b9050919050565b600061ffff82169050919050565b600062001e3a8262001e1f565b915061ffff820362001e515762001e506200184f565b5b600182019050919050565b7f4c69624469616d6f6e644375743a205265706c6163652066616365742063616e60008201527f2774206265206164647265737328302900000000000000000000000000000000602082015250565b600062001eba603083620017a6565b915062001ec78262001e5c565b604082019050919050565b6000602082019050818103600083015262001eed8162001eab565b9050919050565b7f4c69624469616d6f6e644375743a2043616e2774207265706c61636520696d6d60008201527f757461626c652066756e6374696f6e0000000000000000000000000000000000602082015250565b600062001f52602f83620017a6565b915062001f5f8262001ef4565b604082019050919050565b6000602082019050818103600083015262001f858162001f43565b9050919050565b7f4c69624469616d6f6e644375743a2043616e2774207265706c6163652066756e60008201527f6374696f6e20776974682073616d652066756e6374696f6e0000000000000000602082015250565b600062001fea603883620017a6565b915062001ff78262001f8c565b604082019050919050565b600060208201905081810360008301526200201d8162001fdb565b9050919050565b7f4c69624469616d6f6e644375743a2043616e2774207265706c6163652066756e60008201527f6374696f6e207468617420646f65736e27742065786973740000000000000000602082015250565b600062002082603883620017a6565b91506200208f8262002024565b604082019050919050565b60006020820190508181036000830152620020b58162002073565b9050919050565b7f4c69624469616d6f6e644375743a2052656d6f7665206661636574206164647260008201527f657373206d757374206265206164647265737328302900000000000000000000602082015250565b60006200211a603683620017a6565b91506200212782620020bc565b604082019050919050565b600060208201905081810360008301526200214d816200210b565b9050919050565b7f4c69624469616d6f6e644375743a2043616e27742072656d6f76652066756e6360008201527f74696f6e207468617420646f65736e2774206578697374000000000000000000602082015250565b6000620021b2603783620017a6565b9150620021bf8262002154565b604082019050919050565b60006020820190508181036000830152620021e581620021a3565b9050919050565b7f4c69624469616d6f6e644375743a2043616e27742072656d6f766520696d6d7560008201527f7461626c652066756e6374696f6e2e0000000000000000000000000000000000602082015250565b60006200224a602f83620017a6565b91506200225782620021ec565b604082019050919050565b600060208201905081810360008301526200227d816200223b565b9050919050565b600062002291826200187e565b915060008203620022a757620022a66200184f565b5b600182039050919050565b7f4e487b7100000000000000000000000000000000000000000000000000000000600052603160045260246000fd5b7f4c69624469616d6f6e644375743a205f696e697420697320616464726573732860008201527f3029206275745f63616c6c64617461206973206e6f7420656d70747900000000602082015250565b60006200233f603c83620017a6565b91506200234c82620022e1565b604082019050919050565b60006020820190508181036000830152620023728162002330565b9050919050565b7f4c69624469616d6f6e644375743a205f63616c6c6461746120697320656d707460008201527f7920627574205f696e6974206973206e6f742061646472657373283029000000602082015250565b6000620023d7603d83620017a6565b9150620023e48262002379565b604082019050919050565b600060208201905081810360008301526200240a81620023c8565b9050919050565b600081905092915050565b6000620024298262001b68565b62002435818562002411565b93506200244781856020860162001b84565b80840191505092915050565b60006200246182846200241c565b915081905092915050565b600081519050919050565b600062002484826200246c565b620024908185620017a6565b9350620024a281856020860162001b84565b620024ad8162001bba565b840191505092915050565b60006020820190508181036000830152620024d4818462002477565b905092915050565b7f4c69624469616d6f6e644375743a205f696e69742066756e6374696f6e20726560008201527f7665727465640000000000000000000000000000000000000000000000000000602082015250565b60006200253a602683620017a6565b91506200254782620024dc565b604082019050919050565b600060208201905081810360008301526200256d816200252b565b9050919050565b6125b780620025846000396000f3fe6080604052600436106100225760003560e01c80639cb8a26a146101a357610033565b366100335761003133346101ba565b005b6000807fc8fcad8db84d3cc18b4c41d551ea0ee66dd599cde068d998e57d5e09332c131c9050809150600082600001600080357fffffffff00000000000000000000000000000000000000000000000000000000167bffffffffffffffffffffffffffffffffffffffffffffffffffffffff19167bffffffffffffffffffffffffffffffffffffffffffffffffffffffff1916815260200190815260200160002060000160009054906101000a900473ffffffffffffffffffffffffffffffffffffffff169050600073ffffffffffffffffffffffffffffffffffffffff168173ffffffffffffffffffffffffffffffffffffffff1603610169576040517f08c379a0000000000000000000000000000000000000000000000000000000008152600401610160906115b5565b60405180910390fd5b600034111561017d5761017c33346101ba565b5b3660008037600080366000845af43d6000803e806000811461019e573d6000f35b3d6000fd5b3480156101af57600080fd5b506101b8610296565b005b80600060080160008473ffffffffffffffffffffffffffffffffffffffff1673ffffffffffffffffffffffffffffffffffffffff168152602001908152602001600020600082825461020c919061160e565b92505081905550806000600c016000828254610228919061160e565b9250508190555060646000600f0160009054906101000a900460ff1660ff16826102529190611664565b61025c91906116ed565b6000600d016000828254610270919061160e565b9250508190555060026000600d015461028991906116ed565b6000600e01819055505050565b60008060120160006102a6610668565b73ffffffffffffffffffffffffffffffffffffffff1673ffffffffffffffffffffffffffffffffffffffff1681526020019081526020016000206000015411610324576040517f08c379a000000000000000000000000000000000000000000000000000000000815260040161031b90611790565b60405180910390fd5b600060020160009054906101000a900473ffffffffffffffffffffffffffffffffffffffff1673ffffffffffffffffffffffffffffffffffffffff16ff5b600061036c610718565b905060008160030160009054906101000a900473ffffffffffffffffffffffffffffffffffffffff169050828260030160006101000a81548173ffffffffffffffffffffffffffffffffffffffff021916908373ffffffffffffffffffffffffffffffffffffffff1602179055508273ffffffffffffffffffffffffffffffffffffffff168173ffffffffffffffffffffffffffffffffffffffff167f8be0079c531659141344cd1fd0a4f28419497f9722a3daafe3b4186f6b6457e060405160405180910390a3505050565b60005b835181101561061d57600084828151811061045a576104596117b0565b5b60200260200101516020015190506000600281111561047c5761047b6117df565b5b81600281111561048f5761048e6117df565b5b036104df576104da8583815181106104aa576104a96117b0565b5b6020026020010151600001518684815181106104c9576104c86117b0565b5b602002602001015160400151610745565b610609565b600160028111156104f3576104f26117df565b5b816002811115610506576105056117df565b5b0361055657610551858381518110610521576105206117b0565b5b6020026020010151600001518684815181106105405761053f6117b0565b5b602002602001015160400151610aad565b610608565b600280811115610569576105686117df565b5b81600281111561057c5761057b6117df565b5b036105cc576105c7858381518110610597576105966117b0565b5b6020026020010151600001518684815181106105b6576105b56117b0565b5b602002602001015160400151610e2f565b610607565b6040517f08c379a00000000000000000000000000000000000000000000000000000000081526004016105fe90611880565b60405180910390fd5b5b5b508080610615906118a0565b91505061043c565b507f8faa70878671ccd212d20771b795c50af8fd3ff6cf27f4bde57e5d4de0aeb67383838360405161065193929190611c15565b60405180910390a161066382826112f4565b505050565b60003073ffffffffffffffffffffffffffffffffffffffff163373ffffffffffffffffffffffffffffffffffffffff160361071157600080368080601f016020809104026020016040519081016040528093929190818152602001838380828437600081840152601f19601f820116905080830192505050505050509050600080369050905073ffffffffffffffffffffffffffffffffffffffff818301511692505050610715565b3390505b90565b6000807fc8fcad8db84d3cc18b4c41d551ea0ee66dd599cde068d998e57d5e09332c131c90508091505090565b6000815111610789576040517f08c379a000000000000000000000000000000000000000000000000000000000815260040161078090611ccc565b60405180910390fd5b6000610793610718565b9050600081600101805490509050600073ffffffffffffffffffffffffffffffffffffffff168473ffffffffffffffffffffffffffffffffffffffff1603610810576040517f08c379a000000000000000000000000000000000000000000000000000000000815260040161080790611d5e565b60405180910390fd5b6108328460405180606001604052806024815260200161250e60249139611506565b60005b8351811015610aa6576000848281518110610853576108526117b0565b5b602002602001015190506000846000016000837bffffffffffffffffffffffffffffffffffffffffffffffffffffffff19167bffffffffffffffffffffffffffffffffffffffffffffffffffffffff1916815260200190815260200160002060000160009054906101000a900473ffffffffffffffffffffffffffffffffffffffff169050600073ffffffffffffffffffffffffffffffffffffffff168173ffffffffffffffffffffffffffffffffffffffff1614610947576040517f08c379a000000000000000000000000000000000000000000000000000000000815260040161093e90611df0565b60405180910390fd5b60405180604001604052808873ffffffffffffffffffffffffffffffffffffffff1681526020018561ffff16815250856000016000847bffffffffffffffffffffffffffffffffffffffffffffffffffffffff19167bffffffffffffffffffffffffffffffffffffffffffffffffffffffff1916815260200190815260200160002060008201518160000160006101000a81548173ffffffffffffffffffffffffffffffffffffffff021916908373ffffffffffffffffffffffffffffffffffffffff16021790555060208201518160000160146101000a81548161ffff021916908361ffff160217905550905050846001018290806001815401808255809150506001900390600052602060002090600891828204019190066004029091909190916101000a81548163ffffffff021916908360e01c02179055508380610a8e90611e1e565b94505050508080610a9e906118a0565b915050610835565b5050505050565b6000815111610af1576040517f08c379a0000000000000000000000000000000000000000000000000000000008152600401610ae890611ccc565b60405180910390fd5b6000610afb610718565b9050600073ffffffffffffffffffffffffffffffffffffffff168373ffffffffffffffffffffffffffffffffffffffff1603610b6c576040517f08c379a0000000000000000000000000000000000000000000000000000000008152600401610b6390611eba565b60405180910390fd5b610b8e8360405180606001604052806028815260200161255a60289139611506565b60005b8251811015610e29576000838281518110610baf57610bae6117b0565b5b602002602001015190506000836000016000837bffffffffffffffffffffffffffffffffffffffffffffffffffffffff19167bffffffffffffffffffffffffffffffffffffffffffffffffffffffff1916815260200190815260200160002060000160009054906101000a900473ffffffffffffffffffffffffffffffffffffffff1690503073ffffffffffffffffffffffffffffffffffffffff168173ffffffffffffffffffffffffffffffffffffffff1603610ca2576040517f08c379a0000000000000000000000000000000000000000000000000000000008152600401610c9990611f4c565b60405180910390fd5b8573ffffffffffffffffffffffffffffffffffffffff168173ffffffffffffffffffffffffffffffffffffffff1603610d10576040517f08c379a0000000000000000000000000000000000000000000000000000000008152600401610d0790611fde565b60405180910390fd5b600073ffffffffffffffffffffffffffffffffffffffff168173ffffffffffffffffffffffffffffffffffffffff1603610d7f576040517f08c379a0000000000000000000000000000000000000000000000000000000008152600401610d7690612070565b60405180910390fd5b85846000016000847bffffffffffffffffffffffffffffffffffffffffffffffffffffffff19167bffffffffffffffffffffffffffffffffffffffffffffffffffffffff1916815260200190815260200160002060000160006101000a81548173ffffffffffffffffffffffffffffffffffffffff021916908373ffffffffffffffffffffffffffffffffffffffff16021790555050508080610e21906118a0565b915050610b91565b50505050565b6000815111610e73576040517f08c379a0000000000000000000000000000000000000000000000000000000008152600401610e6a90611ccc565b60405180910390fd5b6000610e7d610718565b9050600081600101805490509050600073ffffffffffffffffffffffffffffffffffffffff168473ffffffffffffffffffffffffffffffffffffffff1614610efa576040517f08c379a0000000000000000000000000000000000000000000000000000000008152600401610ef190612102565b60405180910390fd5b60005b83518110156112ed576000848281518110610f1b57610f1a6117b0565b5b602002602001015190506000846000016000837bffffffffffffffffffffffffffffffffffffffffffffffffffffffff19167bffffffffffffffffffffffffffffffffffffffffffffffffffffffff191681526020019081526020016000206040518060400160405290816000820160009054906101000a900473ffffffffffffffffffffffffffffffffffffffff1673ffffffffffffffffffffffffffffffffffffffff1673ffffffffffffffffffffffffffffffffffffffff1681526020016000820160149054906101000a900461ffff1661ffff1661ffff16815250509050600073ffffffffffffffffffffffffffffffffffffffff16816000015173ffffffffffffffffffffffffffffffffffffffff1603611070576040517f08c379a000000000000000000000000000000000000000000000000000000000815260040161106790612194565b60405180910390fd5b3073ffffffffffffffffffffffffffffffffffffffff16816000015173ffffffffffffffffffffffffffffffffffffffff16036110e2576040517f08c379a00000000000000000000000000000000000000000000000000000000081526004016110d990612226565b60405180910390fd5b83806110ed90612246565b94505083816020015161ffff1614611202576000856001018581548110611117576111166117b0565b5b90600052602060002090600891828204019190066004029054906101000a900460e01b90508086600101836020015161ffff168154811061115b5761115a6117b0565b5b90600052602060002090600891828204019190066004026101000a81548163ffffffff021916908360e01c02179055508160200151866000016000837bffffffffffffffffffffffffffffffffffffffffffffffffffffffff19167bffffffffffffffffffffffffffffffffffffffffffffffffffffffff1916815260200190815260200160002060000160146101000a81548161ffff021916908361ffff160217905550505b846001018054806112165761121561226f565b5b60019003818190600052602060002090600891828204019190066004026101000a81549063ffffffff02191690559055846000016000837bffffffffffffffffffffffffffffffffffffffffffffffffffffffff19167bffffffffffffffffffffffffffffffffffffffffffffffffffffffff19168152602001908152602001600020600080820160006101000a81549073ffffffffffffffffffffffffffffffffffffffff02191690556000820160146101000a81549061ffff02191690555050505080806112e5906118a0565b915050610efd565b5050505050565b600073ffffffffffffffffffffffffffffffffffffffff168273ffffffffffffffffffffffffffffffffffffffff160361137157600081511461136c576040517f08c379a000000000000000000000000000000000000000000000000000000000815260040161136390612310565b60405180910390fd5b611502565b60008151116113b5576040517f08c379a00000000000000000000000000000000000000000000000000000000081526004016113ac906123a2565b60405180910390fd5b3073ffffffffffffffffffffffffffffffffffffffff168273ffffffffffffffffffffffffffffffffffffffff161461140b5761140a8260405180606001604052806028815260200161253260289139611506565b5b6000808373ffffffffffffffffffffffffffffffffffffffff168360405161143391906123fe565b600060405180830381855af49150503d806000811461146e576040519150601f19603f3d011682016040523d82523d6000602084013e611473565b606091505b5091509150816114ff576000815111156114c457806040517f08c379a00000000000000000000000000000000000000000000000000000000081526004016114bb9190612459565b60405180910390fd5b6040517f08c379a00000000000000000000000000000000000000000000000000000000081526004016114f6906124ed565b60405180910390fd5b50505b5050565b6000823b9050600081118290611552576040517f08c379a00000000000000000000000000000000000000000000000000000000081526004016115499190612459565b60405180910390fd5b50505050565b600082825260208201905092915050565b7f4469616d6f6e643a2046756e6374696f6e20646f6573206e6f74206578697374600082015250565b600061159f602083611558565b91506115aa82611569565b602082019050919050565b600060208201905081810360008301526115ce81611592565b9050919050565b6000819050919050565b7f4e487b7100000000000000000000000000000000000000000000000000000000600052601160045260246000fd5b6000611619826115d5565b9150611624836115d5565b9250827fffffffffffffffffffffffffffffffffffffffffffffffffffffffffffffffff03821115611659576116586115df565b5b828201905092915050565b600061166f826115d5565b915061167a836115d5565b9250817fffffffffffffffffffffffffffffffffffffffffffffffffffffffffffffffff04831182151516156116b3576116b26115df565b5b828202905092915050565b7f4e487b7100000000000000000000000000000000000000000000000000000000600052601260045260246000fd5b60006116f8826115d5565b9150611703836115d5565b925082611713576117126116be565b5b828204905092915050565b7f4e4f545f414c4c4f5745443a204f6e6c79206775696c642061646d696e73206360008201527f616e2063616c6c20746869732066756e6374696f6e0000000000000000000000602082015250565b600061177a603583611558565b91506117858261171e565b604082019050919050565b600060208201905081810360008301526117a98161176d565b9050919050565b7f4e487b7100000000000000000000000000000000000000000000000000000000600052603260045260246000fd5b7f4e487b7100000000000000000000000000000000000000000000000000000000600052602160045260246000fd5b7f4c69624469616d6f6e644375743a20496e636f7272656374204661636574437560008201527f74416374696f6e00000000000000000000000000000000000000000000000000602082015250565b600061186a602783611558565b91506118758261180e565b604082019050919050565b600060208201905081810360008301526118998161185d565b9050919050565b60006118ab826115d5565b91507fffffffffffffffffffffffffffffffffffffffffffffffffffffffffffffffff82036118dd576118dc6115df565b5b600182019050919050565b600081519050919050565b600082825260208201905092915050565b6000819050602082019050919050565b600073ffffffffffffffffffffffffffffffffffffffff82169050919050565b600061193f82611914565b9050919050565b61194f81611934565b82525050565b60038110611966576119656117df565b5b50565b600081905061197782611955565b919050565b600061198782611969565b9050919050565b6119978161197c565b82525050565b600081519050919050565b600082825260208201905092915050565b6000819050602082019050919050565b60007fffffffff0000000000000000000000000000000000000000000000000000000082169050919050565b6119fe816119c9565b82525050565b6000611a1083836119f5565b60208301905092915050565b6000602082019050919050565b6000611a348261199d565b611a3e81856119a8565b9350611a49836119b9565b8060005b83811015611a7a578151611a618882611a04565b9750611a6c83611a1c565b925050600181019050611a4d565b5085935050505092915050565b6000606083016000830151611a9f6000860182611946565b506020830151611ab2602086018261198e565b5060408301518482036040860152611aca8282611a29565b9150508091505092915050565b6000611ae38383611a87565b905092915050565b6000602082019050919050565b6000611b03826118e8565b611b0d81856118f3565b935083602082028501611b1f85611904565b8060005b85811015611b5b5784840389528151611b3c8582611ad7565b9450611b4783611aeb565b925060208a01995050600181019050611b23565b50829750879550505050505092915050565b611b7681611934565b82525050565b600081519050919050565b600082825260208201905092915050565b60005b83811015611bb6578082015181840152602081019050611b9b565b83811115611bc5576000848401525b50505050565b6000601f19601f8301169050919050565b6000611be782611b7c565b611bf18185611b87565b9350611c01818560208601611b98565b611c0a81611bcb565b840191505092915050565b60006060820190508181036000830152611c2f8186611af8565b9050611c3e6020830185611b6d565b8181036040830152611c508184611bdc565b9050949350505050565b7f4c69624469616d6f6e644375743a204e6f2073656c6563746f727320696e206660008201527f6163657420746f20637574000000000000000000000000000000000000000000602082015250565b6000611cb6602b83611558565b9150611cc182611c5a565b604082019050919050565b60006020820190508181036000830152611ce581611ca9565b9050919050565b7f4c69624469616d6f6e644375743a204164642066616365742063616e2774206260008201527f6520616464726573732830290000000000000000000000000000000000000000602082015250565b6000611d48602c83611558565b9150611d5382611cec565b604082019050919050565b60006020820190508181036000830152611d7781611d3b565b9050919050565b7f4c69624469616d6f6e644375743a2043616e2774206164642066756e6374696f60008201527f6e207468617420616c7265616479206578697374730000000000000000000000602082015250565b6000611dda603583611558565b9150611de582611d7e565b604082019050919050565b60006020820190508181036000830152611e0981611dcd565b9050919050565b600061ffff82169050919050565b6000611e2982611e10565b915061ffff8203611e3d57611e3c6115df565b5b600182019050919050565b7f4c69624469616d6f6e644375743a205265706c6163652066616365742063616e60008201527f2774206265206164647265737328302900000000000000000000000000000000602082015250565b6000611ea4603083611558565b9150611eaf82611e48565b604082019050919050565b60006020820190508181036000830152611ed381611e97565b9050919050565b7f4c69624469616d6f6e644375743a2043616e2774207265706c61636520696d6d60008201527f757461626c652066756e6374696f6e0000000000000000000000000000000000602082015250565b6000611f36602f83611558565b9150611f4182611eda565b604082019050919050565b60006020820190508181036000830152611f6581611f29565b9050919050565b7f4c69624469616d6f6e644375743a2043616e2774207265706c6163652066756e60008201527f6374696f6e20776974682073616d652066756e6374696f6e0000000000000000602082015250565b6000611fc8603883611558565b9150611fd382611f6c565b604082019050919050565b60006020820190508181036000830152611ff781611fbb565b9050919050565b7f4c69624469616d6f6e644375743a2043616e2774207265706c6163652066756e60008201527f6374696f6e207468617420646f65736e27742065786973740000000000000000602082015250565b600061205a603883611558565b915061206582611ffe565b604082019050919050565b600060208201905081810360008301526120898161204d565b9050919050565b7f4c69624469616d6f6e644375743a2052656d6f7665206661636574206164647260008201527f657373206d757374206265206164647265737328302900000000000000000000602082015250565b60006120ec603683611558565b91506120f782612090565b604082019050919050565b6000602082019050818103600083015261211b816120df565b9050919050565b7f4c69624469616d6f6e644375743a2043616e27742072656d6f76652066756e6360008201527f74696f6e207468617420646f65736e2774206578697374000000000000000000602082015250565b600061217e603783611558565b915061218982612122565b604082019050919050565b600060208201905081810360008301526121ad81612171565b9050919050565b7f4c69624469616d6f6e644375743a2043616e27742072656d6f766520696d6d7560008201527f7461626c652066756e6374696f6e2e0000000000000000000000000000000000602082015250565b6000612210602f83611558565b915061221b826121b4565b604082019050919050565b6000602082019050818103600083015261223f81612203565b9050919050565b6000612251826115d5565b915060008203612264576122636115df565b5b600182039050919050565b7f4e487b7100000000000000000000000000000000000000000000000000000000600052603160045260246000fd5b7f4c69624469616d6f6e644375743a205f696e697420697320616464726573732860008201527f3029206275745f63616c6c64617461206973206e6f7420656d70747900000000602082015250565b60006122fa603c83611558565b91506123058261229e565b604082019050919050565b60006020820190508181036000830152612329816122ed565b9050919050565b7f4c69624469616d6f6e644375743a205f63616c6c6461746120697320656d707460008201527f7920627574205f696e6974206973206e6f742061646472657373283029000000602082015250565b600061238c603d83611558565b915061239782612330565b604082019050919050565b600060208201905081810360008301526123bb8161237f565b9050919050565b600081905092915050565b60006123d882611b7c565b6123e281856123c2565b93506123f2818560208601611b98565b80840191505092915050565b600061240a82846123cd565b915081905092915050565b600081519050919050565b600061242b82612415565b6124358185611558565b9350612445818560208601611b98565b61244e81611bcb565b840191505092915050565b600060208201905081810360008301526124738184612420565b905092915050565b7f4c69624469616d6f6e644375743a205f696e69742066756e6374696f6e20726560008201527f7665727465640000000000000000000000000000000000000000000000000000602082015250565b60006124d7602683611558565b91506124e28261247b565b604082019050919050565b60006020820190508181036000830152612506816124ca565b905091905056fe4c69624469616d6f6e644375743a2041646420666163657420686173206e6f20636f64654c69624469616d6f6e644375743a205f696e6974206164647265737320686173206e6f20636f64654c69624469616d6f6e644375743a205265706c61636520666163657420686173206e6f20636f6465a2646970667358221220181dd2b572ccd8fa61605f396390815fec4139faa46f7c48af735cc6f8ecd20164736f6c634300080d00334c69624469616d6f6e644375743a2041646420666163657420686173206e6f20636f64654c69624469616d6f6e644375743a205f696e6974206164647265737320686173206e6f20636f64654c69624469616d6f6e644375743a205265706c61636520666163657420686173206e6f20636f6465",
  "linkReferences": {},
  "deployedLinkReferences": {}
}