{
  "_format": "hh-sol-artifact-1",
  "contractName": "LootboxFacet",
  "sourceName": "contracts/facets/LootboxFacet.sol",
  "abi": [
    {
      "inputs": [
        {
          "internalType": "address",
          "name": "playerAddress",
          "type": "address"
        },
        {
          "internalType": "uint256",
          "name": "lootboxTokenId",
          "type": "uint256"
        },
        {
          "internalType": "uint256",
          "name": "amount",
          "type": "uint256"
        }
      ],
      "name": "award",
      "outputs": [],
      "stateMutability": "nonpayable",
      "type": "function"
    },
    {
      "inputs": [
        {
          "internalType": "address",
          "name": "playerAddress",
          "type": "address"
        }
      ],
      "name": "list",
      "outputs": [
        {
          "internalType": "uint256[]",
          "name": "_lootboxBalances",
          "type": "uint256[]"
        }
      ],
      "stateMutability": "view",
      "type": "function"
    },
    {
      "inputs": [
        {
          "internalType": "address",
          "name": "playerAddress",
          "type": "address"
        },
        {
          "internalType": "uint256",
          "name": "lootboxTokenId",
          "type": "uint256"
        }
      ],
      "name": "open",
      "outputs": [],
      "stateMutability": "nonpayable",
      "type": "function"
    }
  ],
  "bytecode": "0x608060405234801561001057600080fd5b50612177806100206000396000f3fe608060405234801561001057600080fd5b50600436106100415760003560e01c80630a0e5c9d14610046578063bb032a6614610062578063dd44137514610092575b600080fd5b610060600480360381019061005b919061161f565b6100ae565b005b61007c6004803603810190610077919061165f565b610373565b604051610089919061174a565b60405180910390f35b6100ac60048036038101906100a7919061176c565b61047d565b005b600060160160009054906101000a900460ff1615610101576040517f08c379a00000000000000000000000000000000000000000000000000000000081526004016100f89061181c565b60405180910390fd5b6001600060160160006101000a81548160ff02191690831515021790555081600073ffffffffffffffffffffffffffffffffffffffff168173ffffffffffffffffffffffffffffffffffffffff160361018f576040517f08c379a0000000000000000000000000000000000000000000000000000000008152600401610186906118ae565b60405180910390fd5b60008060130160008373ffffffffffffffffffffffffffffffffffffffff1673ffffffffffffffffffffffffffffffffffffffff1681526020019081526020016000206000015411610216576040517f08c379a000000000000000000000000000000000000000000000000000000000815260040161020d90611940565b60405180910390fd5b600060010160009054906101000a900473ffffffffffffffffffffffffffffffffffffffff1673ffffffffffffffffffffffffffffffffffffffff1661025a61061f565b73ffffffffffffffffffffffffffffffffffffffff16146102b0576040517f08c379a00000000000000000000000000000000000000000000000000000000081526004016102a7906119d2565b60405180910390fd5b60016000600701600084815260200190815260200160002060008573ffffffffffffffffffffffffffffffffffffffff1673ffffffffffffffffffffffffffffffffffffffff168152602001908152602001600020541015610347576040517f08c379a000000000000000000000000000000000000000000000000000000000815260040161033e90611a64565b60405180910390fd5b61035183836106cf565b5060008060160160006101000a81548160ff0219169083151502179055505050565b606081600073ffffffffffffffffffffffffffffffffffffffff168173ffffffffffffffffffffffffffffffffffffffff16036103e5576040517f08c379a00000000000000000000000000000000000000000000000000000000081526004016103dc906118ae565b60405180910390fd5b60008060130160008373ffffffffffffffffffffffffffffffffffffffff1673ffffffffffffffffffffffffffffffffffffffff168152602001908152602001600020600001541161046c576040517f08c379a000000000000000000000000000000000000000000000000000000000815260040161046390611940565b60405180910390fd5b61047583610a67565b915050919050565b82600073ffffffffffffffffffffffffffffffffffffffff168173ffffffffffffffffffffffffffffffffffffffff16036104ed576040517f08c379a00000000000000000000000000000000000000000000000000000000081526004016104e4906118ae565b60405180910390fd5b60008060130160008373ffffffffffffffffffffffffffffffffffffffff1673ffffffffffffffffffffffffffffffffffffffff1681526020019081526020016000206000015411610574576040517f08c379a000000000000000000000000000000000000000000000000000000000815260040161056b90611940565b60405180910390fd5b600060010160009054906101000a900473ffffffffffffffffffffffffffffffffffffffff1673ffffffffffffffffffffffffffffffffffffffff166105b861061f565b73ffffffffffffffffffffffffffffffffffffffff161461060e576040517f08c379a0000000000000000000000000000000000000000000000000000000008152600401610605906119d2565b60405180910390fd5b610619848484610e75565b50505050565b60003073ffffffffffffffffffffffffffffffffffffffff163373ffffffffffffffffffffffffffffffffffffffff16036106c857600080368080601f016020809104026020016040519081016040528093929190818152602001838380828437600081840152601f19601f820116905080830192505050505050509050600080369050905073ffffffffffffffffffffffffffffffffffffffff8183015116925050506106cc565b3390505b90565b60006106d9610f23565b9050600081601101600083600601600086815260200190815260200160002060009054906101000a900460ff16600481111561071857610717611a84565b5b600481111561072a57610729611a84565b5b815260200190815260200160002060009054906101000a900460ff1660ff169050600082600e015483600d0154116107665782600d015461076c565b82600e01545b9050600060648460150154836107829190611b11565b8461078d9190611b42565b6107979190611b11565b905060006107a56028610f28565b9050606460148260646107b89190611b9c565b6107c29190611bf2565b836107cd9190611b42565b6107d79190611b11565b91506000808873ffffffffffffffffffffffffffffffffffffffff16848860140160009054906101000a900463ffffffff1663ffffffff169060405161081c90611c57565b600060405180830381858888f193505050503d806000811461085a576040519150601f19603f3d011682016040523d82523d6000602084013e61085f565b606091505b5091509150816108c5578060405160200161087a9190611d0c565b6040516020818303038152906040526040517f08c379a00000000000000000000000000000000000000000000000000000000081526004016108bc9190611d7c565b60405180910390fd5b6109438988600301548960090160008060048111156108e7576108e6611a84565b5b60048111156108f9576108f8611a84565b5b8152602001908152602001600020546040518060400160405280600381526020017f3078300000000000000000000000000000000000000000000000000000000000815250610f6a565b61094f89896001611117565b8387600d0160008282546109639190611bf2565b9250508190555086600e015487600d0154101561099457600287600d015461098b9190611b11565b87600e01819055505b8387600c0160008282546109a89190611bf2565b9250508190555086600b0160008154809291906109c490611d9e565b91905055508660130160008a73ffffffffffffffffffffffffffffffffffffffff1673ffffffffffffffffffffffffffffffffffffffff1681526020019081526020016000206002016000815480929190610a1e90611d9e565b91905055507fbcd7c5a185f69775d49586e0e3a2555e44df28943d52ef32f4c9b484ef6c31318989604051610a54929190611e04565b60405180910390a1505050505050505050565b60606000610a73610f23565b90506000600567ffffffffffffffff811115610a9257610a91611e2d565b5b604051908082528060200260200182016040528015610ac05781602001602082028036833780820191505090505b509050816005016000806004811115610adc57610adb611a84565b5b6004811115610aee57610aed611a84565b5b81526020019081526020016000205481600081518110610b1157610b10611e5c565b5b60200260200101818152505081600501600060016004811115610b3757610b36611a84565b5b6004811115610b4957610b48611a84565b5b81526020019081526020016000205481600181518110610b6c57610b6b611e5c565b5b60200260200101818152505081600501600060026004811115610b9257610b91611a84565b5b6004811115610ba457610ba3611a84565b5b81526020019081526020016000205481600281518110610bc757610bc6611e5c565b5b60200260200101818152505081600501600060036004811115610bed57610bec611a84565b5b6004811115610bff57610bfe611a84565b5b81526020019081526020016000205481600381518110610c2257610c21611e5c565b5b602002602001018181525050816005016000600480811115610c4757610c46611a84565b5b6004811115610c5957610c58611a84565b5b81526020019081526020016000205481600481518110610c7c57610c7b611e5c565b5b6020026020010181815250506000600567ffffffffffffffff811115610ca557610ca4611e2d565b5b604051908082528060200260200182016040528015610cd35781602001602082028036833780820191505090505b5090508481600081518110610ceb57610cea611e5c565b5b602002602001019073ffffffffffffffffffffffffffffffffffffffff16908173ffffffffffffffffffffffffffffffffffffffff16815250508481600181518110610d3a57610d39611e5c565b5b602002602001019073ffffffffffffffffffffffffffffffffffffffff16908173ffffffffffffffffffffffffffffffffffffffff16815250508481600281518110610d8957610d88611e5c565b5b602002602001019073ffffffffffffffffffffffffffffffffffffffff16908173ffffffffffffffffffffffffffffffffffffffff16815250508481600381518110610dd857610dd7611e5c565b5b602002602001019073ffffffffffffffffffffffffffffffffffffffff16908173ffffffffffffffffffffffffffffffffffffffff16815250508481600481518110610e2757610e26611e5c565b5b602002602001019073ffffffffffffffffffffffffffffffffffffffff16908173ffffffffffffffffffffffffffffffffffffffff1681525050610e6b818361135c565b9350505050919050565b6000610e7f610f23565b9050610ec28484846040518060400160405280600381526020017f3078300000000000000000000000000000000000000000000000000000000000815250610f6a565b818160130160008673ffffffffffffffffffffffffffffffffffffffff1673ffffffffffffffffffffffffffffffffffffffff1681526020019081526020016000206001016000828254610f169190611b9c565b9250508190555050505050565b600090565b600081424433604051602001610f4093929190611ef4565b6040516020818303038152906040528051906020012060001c610f639190611f31565b9050919050565b6000610f74610f23565b9050600073ffffffffffffffffffffffffffffffffffffffff168573ffffffffffffffffffffffffffffffffffffffff1603610fe5576040517f08c379a0000000000000000000000000000000000000000000000000000000008152600401610fdc90611fd4565b60405180910390fd5b6000610fef611431565b90506000610ffc86611439565b9050600061100986611439565b905061101a8360008a85858a6114b3565b8584600701600089815260200190815260200160002060008a73ffffffffffffffffffffffffffffffffffffffff1673ffffffffffffffffffffffffffffffffffffffff168152602001908152602001600020600082825461107c9190611b9c565b925050819055508773ffffffffffffffffffffffffffffffffffffffff16600073ffffffffffffffffffffffffffffffffffffffff168473ffffffffffffffffffffffffffffffffffffffff167fc3d58168c5ae7397731d063d5bbf3d657854427343f4c083240f7aacaa2d0f628a8a6040516110fa929190611ff4565b60405180910390a461110d6000826114bb565b5050505050505050565b6000611121610f23565b9050600073ffffffffffffffffffffffffffffffffffffffff168473ffffffffffffffffffffffffffffffffffffffff1603611192576040517f08c379a00000000000000000000000000000000000000000000000000000000081526004016111899061208f565b60405180910390fd5b600061119c611431565b905060006111a985611439565b905060006111b685611439565b90506111d6838860008585604051806020016040528060008152506114b3565b600084600701600088815260200190815260200160002060008973ffffffffffffffffffffffffffffffffffffffff1673ffffffffffffffffffffffffffffffffffffffff16815260200190815260200160002054905085811015611270576040517f08c379a000000000000000000000000000000000000000000000000000000000815260040161126790612121565b60405180910390fd5b85810385600701600089815260200190815260200160002060008a73ffffffffffffffffffffffffffffffffffffffff1673ffffffffffffffffffffffffffffffffffffffff16815260200190815260200160002081905550600073ffffffffffffffffffffffffffffffffffffffff168873ffffffffffffffffffffffffffffffffffffffff168573ffffffffffffffffffffffffffffffffffffffff167fc3d58168c5ae7397731d063d5bbf3d657854427343f4c083240f7aacaa2d0f628a8a604051611340929190611ff4565b60405180910390a461135288836114bb565b5050505050505050565b60606000835167ffffffffffffffff81111561137b5761137a611e2d565b5b6040519080825280602002602001820160405280156113a95781602001602082028036833780820191505090505b50905060005b8451811015611426576113f68582815181106113ce576113cd611e5c565b5b60200260200101518583815181106113e9576113e8611e5c565b5b602002602001015161151d565b82828151811061140957611408611e5c565b5b6020026020010181815250508061141f90611d9e565b90506113af565b508091505092915050565b600033905090565b60606000600167ffffffffffffffff81111561145857611457611e2d565b5b6040519080825280602002602001820160405280156114865781602001602082028036833780820191505090505b509050828160008151811061149e5761149d611e5c565b5b60200260200101818152505080915050919050565b505050505050565b600073ffffffffffffffffffffffffffffffffffffffff168273ffffffffffffffffffffffffffffffffffffffff16036115195760006114f9610f23565b9050815181600a0160008282546115109190611b9c565b92505081905550505b5050565b600080611528610f23565b905080600701600084815260200190815260200160002060008573ffffffffffffffffffffffffffffffffffffffff1673ffffffffffffffffffffffffffffffffffffffff1681526020019081526020016000205491505092915050565b600080fd5b600073ffffffffffffffffffffffffffffffffffffffff82169050919050565b60006115b68261158b565b9050919050565b6115c6816115ab565b81146115d157600080fd5b50565b6000813590506115e3816115bd565b92915050565b6000819050919050565b6115fc816115e9565b811461160757600080fd5b50565b600081359050611619816115f3565b92915050565b6000806040838503121561163657611635611586565b5b6000611644858286016115d4565b92505060206116558582860161160a565b9150509250929050565b60006020828403121561167557611674611586565b5b6000611683848285016115d4565b91505092915050565b600081519050919050565b600082825260208201905092915050565b6000819050602082019050919050565b6116c1816115e9565b82525050565b60006116d383836116b8565b60208301905092915050565b6000602082019050919050565b60006116f78261168c565b6117018185611697565b935061170c836116a8565b8060005b8381101561173d57815161172488826116c7565b975061172f836116df565b925050600181019050611710565b5085935050505092915050565b6000602082019050818103600083015261176481846116ec565b905092915050565b60008060006060848603121561178557611784611586565b5b6000611793868287016115d4565b93505060206117a48682870161160a565b92505060406117b58682870161160a565b9150509250925092565b600082825260208201905092915050565b7f4e6f2072652d656e7472616e6379000000000000000000000000000000000000600082015250565b6000611806600e836117bf565b9150611811826117d0565b602082019050919050565b60006020820190508181036000830152611835816117f9565b9050919050565b7f4e4f545f414c4c4f5745443a20506c617965722061646472657373206973206e60008201527f6f742076616c6964000000000000000000000000000000000000000000000000602082015250565b60006118986028836117bf565b91506118a38261183c565b604082019050919050565b600060208201905081810360008301526118c78161188b565b9050919050565b7f4e4f545f414c4c4f5745443a20506c6179657220646f6573206e6f742065786960008201527f7374000000000000000000000000000000000000000000000000000000000000602082015250565b600061192a6022836117bf565b9150611935826118ce565b604082019050919050565b600060208201905081810360008301526119598161191d565b9050919050565b7f4e4f545f414c4c4f5745443a204f6e6c792047616c6c696f6e2063616e20636160008201527f6c6c20746869732066756e6374696f6e00000000000000000000000000000000602082015250565b60006119bc6030836117bf565b91506119c782611960565b604082019050919050565b600060208201905081810360008301526119eb816119af565b9050919050565b7f506c6179657220646f6573206e6f74206f776e2061206c6f6f74626f78206f6660008201527f2074686973207261726974790000000000000000000000000000000000000000602082015250565b6000611a4e602c836117bf565b9150611a59826119f2565b604082019050919050565b60006020820190508181036000830152611a7d81611a41565b9050919050565b7f4e487b7100000000000000000000000000000000000000000000000000000000600052602160045260246000fd5b7f4e487b7100000000000000000000000000000000000000000000000000000000600052601260045260246000fd5b7f4e487b7100000000000000000000000000000000000000000000000000000000600052601160045260246000fd5b6000611b1c826115e9565b9150611b27836115e9565b925082611b3757611b36611ab3565b5b828204905092915050565b6000611b4d826115e9565b9150611b58836115e9565b9250817fffffffffffffffffffffffffffffffffffffffffffffffffffffffffffffffff0483118215151615611b9157611b90611ae2565b5b828202905092915050565b6000611ba7826115e9565b9150611bb2836115e9565b9250827fffffffffffffffffffffffffffffffffffffffffffffffffffffffffffffffff03821115611be757611be6611ae2565b5b828201905092915050565b6000611bfd826115e9565b9150611c08836115e9565b925082821015611c1b57611c1a611ae2565b5b828203905092915050565b600081905092915050565b50565b6000611c41600083611c26565b9150611c4c82611c31565b600082019050919050565b6000611c6282611c34565b9150819050919050565b7f4572726f7220647572696e672073656e64207472616e73616374696f6e3a2000815250565b600081519050919050565b600081905092915050565b60005b83811015611cc6578082015181840152602081019050611cab565b83811115611cd5576000848401525b50505050565b6000611ce682611c92565b611cf08185611c9d565b9350611d00818560208601611ca8565b80840191505092915050565b6000611d1782611c6c565b601f82019150611d278284611cdb565b915081905092915050565b6000601f19601f8301169050919050565b6000611d4e82611c92565b611d5881856117bf565b9350611d68818560208601611ca8565b611d7181611d32565b840191505092915050565b60006020820190508181036000830152611d968184611d43565b905092915050565b6000611da9826115e9565b91507fffffffffffffffffffffffffffffffffffffffffffffffffffffffffffffffff8203611ddb57611dda611ae2565b5b600182019050919050565b611def816115ab565b82525050565b611dfe816115e9565b82525050565b6000604082019050611e196000830185611de6565b611e266020830184611df5565b9392505050565b7f4e487b7100000000000000000000000000000000000000000000000000000000600052604160045260246000fd5b7f4e487b7100000000000000000000000000000000000000000000000000000000600052603260045260246000fd5b6000819050919050565b611ea6611ea1826115e9565b611e8b565b82525050565b60008160601b9050919050565b6000611ec482611eac565b9050919050565b6000611ed682611eb9565b9050919050565b611eee611ee9826115ab565b611ecb565b82525050565b6000611f008286611e95565b602082019150611f108285611e95565b602082019150611f208284611edd565b601482019150819050949350505050565b6000611f3c826115e9565b9150611f47836115e9565b925082611f5757611f56611ab3565b5b828206905092915050565b7f455243313135353a206d696e7420746f20746865207a65726f2061646472657360008201527f7300000000000000000000000000000000000000000000000000000000000000602082015250565b6000611fbe6021836117bf565b9150611fc982611f62565b604082019050919050565b60006020820190508181036000830152611fed81611fb1565b9050919050565b60006040820190506120096000830185611df5565b6120166020830184611df5565b9392505050565b7f455243313135353a206275726e2066726f6d20746865207a65726f206164647260008201527f6573730000000000000000000000000000000000000000000000000000000000602082015250565b60006120796023836117bf565b91506120848261201d565b604082019050919050565b600060208201905081810360008301526120a88161206c565b9050919050565b7f455243313135353a206275726e20616d6f756e7420657863656564732062616c60008201527f616e636500000000000000000000000000000000000000000000000000000000602082015250565b600061210b6024836117bf565b9150612116826120af565b604082019050919050565b6000602082019050818103600083015261213a816120fe565b905091905056fea2646970667358221220cbefe43c490ebd9c84d7213515e081219671e0b3ae38e29f80058c2e3cbb025c64736f6c634300080d0033",
  "linkReferences": {},
  "deployedLinkReferences": {}
}