{
  "_format": "hh-sol-artifact-1",
  "contractName": "RulesFacet",
  "sourceName": "contracts/facets/RulesFacet.sol",
  "abi": [
    {
      "inputs": [],
      "name": "getLootboxesInfo",
      "outputs": [
        {
          "components": [
            {
              "internalType": "enum Rarity",
              "name": "rarity",
              "type": "uint8"
            },
            {
              "internalType": "uint8",
              "name": "lootboxDropChance",
              "type": "uint8"
            },
            {
              "internalType": "uint8",
              "name": "rewardFactor",
              "type": "uint8"
            }
          ],
          "internalType": "struct RulesFacet.LootboxInfo[]",
          "name": "_lootboxesInfo",
          "type": "tuple[]"
        }
      ],
      "stateMutability": "view",
      "type": "function"
    },
    {
      "inputs": [
        {
          "internalType": "enum Rarity[]",
          "name": "lootboxRarities",
          "type": "uint8[]"
        },
        {
          "internalType": "uint8[]",
          "name": "chances",
          "type": "uint8[]"
        }
      ],
      "name": "setLootboxDropChance",
      "outputs": [],
      "stateMutability": "nonpayable",
      "type": "function"
    },
    {
      "inputs": [
        {
          "internalType": "enum Rarity[]",
          "name": "lootboxRarities",
          "type": "uint8[]"
        },
        {
          "internalType": "uint8[]",
          "name": "rewardFactors",
          "type": "uint8[]"
        }
      ],
      "name": "setLootboxRewardFactor",
      "outputs": [],
      "stateMutability": "nonpayable",
      "type": "function"
    }
  ],
  "bytecode": "0x608060405234801561001057600080fd5b506112f3806100206000396000f3fe608060405234801561001057600080fd5b50600436106100415760003560e01c806323245a3114610046578063571f52f2146100625780639cf161ea1461007e575b600080fd5b610060600480360381019061005b9190610ade565b61009c565b005b61007c60048036038101906100779190610ade565b61030a565b005b610086610577565b6040516100939190610ccd565b60405180910390f35b60008060120160006100ac610767565b73ffffffffffffffffffffffffffffffffffffffff1673ffffffffffffffffffffffffffffffffffffffff168152602001908152602001600020600001541161012a576040517f08c379a000000000000000000000000000000000000000000000000000000000815260040161012190610d72565b60405180910390fd5b815181511461016e576040517f08c379a000000000000000000000000000000000000000000000000000000000815260040161016590610e04565b60405180910390fd5b6000805b83518110156103045760008482815181106101905761018f610e24565b5b6020026020010151905060008483815181106101af576101ae610e24565b5b6020026020010151905080846101c59190610e82565b935060648460ff16111561020e576040517f08c379a000000000000000000000000000000000000000000000000000000000815260040161020590610f2b565b60405180910390fd5b60648160ff161115610255576040517f08c379a000000000000000000000000000000000000000000000000000000000815260040161024c90610f97565b60405180910390fd5b60008160ff16101561029c576040517f08c379a000000000000000000000000000000000000000000000000000000000815260040161029390611003565b60405180910390fd5b80600060100160008460048111156102b7576102b6610b82565b5b60048111156102c9576102c8610b82565b5b815260200190815260200160002060006101000a81548160ff021916908360ff160217905550505080806102fc9061102d565b915050610172565b50505050565b600080601201600061031a610767565b73ffffffffffffffffffffffffffffffffffffffff1673ffffffffffffffffffffffffffffffffffffffff1681526020019081526020016000206000015411610398576040517f08c379a000000000000000000000000000000000000000000000000000000000815260040161038f90610d72565b60405180910390fd5b81518151146103dc576040517f08c379a00000000000000000000000000000000000000000000000000000000081526004016103d3906110e7565b60405180910390fd5b6000805b83518110156105715760008482815181106103fe576103fd610e24565b5b60200260200101519050600084838151811061041d5761041c610e24565b5b6020026020010151905080846104339190610e82565b935060648460ff16111561047c576040517f08c379a000000000000000000000000000000000000000000000000000000000815260040161047390611179565b60405180910390fd5b60648160ff1611156104c3576040517f08c379a00000000000000000000000000000000000000000000000000000000081526004016104ba9061120b565b60405180910390fd5b60008160ff1611610509576040517f08c379a00000000000000000000000000000000000000000000000000000000081526004016105009061129d565b60405180910390fd5b806000601101600084600481111561052457610523610b82565b5b600481111561053657610535610b82565b5b815260200190815260200160002060006101000a81548160ff021916908360ff160217905550505080806105699061102d565b9150506103e0565b50505050565b606060006004018054905067ffffffffffffffff81111561059b5761059a61087a565b5b6040519080825280602002602001820160405280156105d457816020015b6105c1610817565b8152602001906001900390816105b95790505b50905060005b600060040180549050811015610763578060048111156105fd576105fc610b82565b5b8282815181106106105761060f610e24565b5b602002602001015160000190600481111561062e5761062d610b82565b5b9081600481111561064257610641610b82565b5b81525050600060100160008260048111156106605761065f610b82565b5b600481111561067257610671610b82565b5b600481111561068457610683610b82565b5b815260200190815260200160002060009054906101000a900460ff168282815181106106b3576106b2610e24565b5b60200260200101516020019060ff16908160ff1681525050600060110160008260048111156106e5576106e4610b82565b5b60048111156106f7576106f6610b82565b5b600481111561070957610708610b82565b5b815260200190815260200160002060009054906101000a900460ff1682828151811061073857610737610e24565b5b60200260200101516040019060ff16908160ff1681525050808061075b9061102d565b9150506105da565b5090565b60003073ffffffffffffffffffffffffffffffffffffffff163373ffffffffffffffffffffffffffffffffffffffff160361081057600080368080601f016020809104026020016040519081016040528093929190818152602001838380828437600081840152601f19601f820116905080830192505050505050509050600080369050905073ffffffffffffffffffffffffffffffffffffffff818301511692505050610814565b3390505b90565b60405180606001604052806000600481111561083657610835610b82565b5b8152602001600060ff168152602001600060ff1681525090565b6000604051905090565b600080fd5b600080fd5b600080fd5b6000601f19601f8301169050919050565b7f4e487b7100000000000000000000000000000000000000000000000000000000600052604160045260246000fd5b6108b282610869565b810181811067ffffffffffffffff821117156108d1576108d061087a565b5b80604052505050565b60006108e4610850565b90506108f082826108a9565b919050565b600067ffffffffffffffff8211156109105761090f61087a565b5b602082029050602081019050919050565b600080fd5b6005811061093357600080fd5b50565b60008135905061094581610926565b92915050565b600061095e610959846108f5565b6108da565b9050808382526020820190506020840283018581111561098157610980610921565b5b835b818110156109aa57806109968882610936565b845260208401935050602081019050610983565b5050509392505050565b600082601f8301126109c9576109c8610864565b5b81356109d984826020860161094b565b91505092915050565b600067ffffffffffffffff8211156109fd576109fc61087a565b5b602082029050602081019050919050565b600060ff82169050919050565b610a2481610a0e565b8114610a2f57600080fd5b50565b600081359050610a4181610a1b565b92915050565b6000610a5a610a55846109e2565b6108da565b90508083825260208201905060208402830185811115610a7d57610a7c610921565b5b835b81811015610aa65780610a928882610a32565b845260208401935050602081019050610a7f565b5050509392505050565b600082601f830112610ac557610ac4610864565b5b8135610ad5848260208601610a47565b91505092915050565b60008060408385031215610af557610af461085a565b5b600083013567ffffffffffffffff811115610b1357610b1261085f565b5b610b1f858286016109b4565b925050602083013567ffffffffffffffff811115610b4057610b3f61085f565b5b610b4c85828601610ab0565b9150509250929050565b600081519050919050565b600082825260208201905092915050565b6000819050602082019050919050565b7f4e487b7100000000000000000000000000000000000000000000000000000000600052602160045260246000fd5b60058110610bc257610bc1610b82565b5b50565b6000819050610bd382610bb1565b919050565b6000610be382610bc5565b9050919050565b610bf381610bd8565b82525050565b610c0281610a0e565b82525050565b606082016000820151610c1e6000850182610bea565b506020820151610c316020850182610bf9565b506040820151610c446040850182610bf9565b50505050565b6000610c568383610c08565b60608301905092915050565b6000602082019050919050565b6000610c7a82610b56565b610c848185610b61565b9350610c8f83610b72565b8060005b83811015610cc0578151610ca78882610c4a565b9750610cb283610c62565b925050600181019050610c93565b5085935050505092915050565b60006020820190508181036000830152610ce78184610c6f565b905092915050565b600082825260208201905092915050565b7f4e4f545f414c4c4f5745443a204f6e6c79206775696c642061646d696e73206360008201527f616e2063616c6c20746869732066756e6374696f6e0000000000000000000000602082015250565b6000610d5c603583610cef565b9150610d6782610d00565b604082019050919050565b60006020820190508181036000830152610d8b81610d4f565b9050919050565b7f526172697469657320616e64206368616e636573206d7573742068617665207460008201527f68652073616d65206c656e677468000000000000000000000000000000000000602082015250565b6000610dee602e83610cef565b9150610df982610d92565b604082019050919050565b60006020820190508181036000830152610e1d81610de1565b9050919050565b7f4e487b7100000000000000000000000000000000000000000000000000000000600052603260045260246000fd5b7f4e487b7100000000000000000000000000000000000000000000000000000000600052601160045260246000fd5b6000610e8d82610a0e565b9150610e9883610a0e565b92508260ff03821115610eae57610ead610e53565b5b828201905092915050565b7f43756d756c6174697665206368616e6365206d757374206265206c657373207460008201527f68616e2031303000000000000000000000000000000000000000000000000000602082015250565b6000610f15602783610cef565b9150610f2082610eb9565b604082019050919050565b60006020820190508181036000830152610f4481610f08565b9050919050565b7f4368616e6365206d757374206265206c657373207468616e2031303000000000600082015250565b6000610f81601c83610cef565b9150610f8c82610f4b565b602082019050919050565b60006020820190508181036000830152610fb081610f74565b9050919050565b7f4368616e6365206d7573742062652067726561746572207468616e2030000000600082015250565b6000610fed601d83610cef565b9150610ff882610fb7565b602082019050919050565b6000602082019050818103600083015261101c81610fe0565b9050919050565b6000819050919050565b600061103882611023565b91507fffffffffffffffffffffffffffffffffffffffffffffffffffffffffffffffff820361106a57611069610e53565b5b600182019050919050565b7f526172697469657320616e6420726577617264466163746f7273206d7573742060008201527f68617665207468652073616d65206c656e677468000000000000000000000000602082015250565b60006110d1603483610cef565b91506110dc82611075565b604082019050919050565b60006020820190508181036000830152611100816110c4565b9050919050565b7f43756d756c61746976652072657761726420666163746f7273206d757374206260008201527f65206c657373207468616e203130300000000000000000000000000000000000602082015250565b6000611163602f83610cef565b915061116e82611107565b604082019050919050565b6000602082019050818103600083015261119281611156565b9050919050565b7f52657761726420666163746f72206d757374206265206c657373207468616e2060008201527f3130300000000000000000000000000000000000000000000000000000000000602082015250565b60006111f5602383610cef565b915061120082611199565b604082019050919050565b60006020820190508181036000830152611224816111e8565b9050919050565b7f52657761726420666163746f72206d757374206265206772656174657220746860008201527f616e203000000000000000000000000000000000000000000000000000000000602082015250565b6000611287602483610cef565b91506112928261122b565b604082019050919050565b600060208201905081810360008301526112b68161127a565b905091905056fea26469706673582212203b0008c20dbb4d016dbe076a2ab009ee6c1dc05862a43ed9b8e2c6fa4517114964736f6c634300080d0033",
  "linkReferences": {},
  "deployedLinkReferences": {}
}