{
  "_format": "hh-sol-artifact-1",
  "contractName": "DiamondCutFacet",
  "sourceName": "contracts/facets/DiamondCutFacet.sol",
  "abi": [
    {
      "anonymous": false,
      "inputs": [
        {
          "components": [
            {
              "internalType": "address",
              "name": "facetAddress",
              "type": "address"
            },
            {
              "internalType": "enum IDiamondCut.FacetCutAction",
              "name": "action",
              "type": "uint8"
            },
            {
              "internalType": "bytes4[]",
              "name": "functionSelectors",
              "type": "bytes4[]"
            }
          ],
          "indexed": false,
          "internalType": "struct IDiamondCut.FacetCut[]",
          "name": "_diamondCut",
          "type": "tuple[]"
        },
        {
          "indexed": false,
          "internalType": "address",
          "name": "_init",
          "type": "address"
        },
        {
          "indexed": false,
          "internalType": "bytes",
          "name": "_calldata",
          "type": "bytes"
        }
      ],
      "name": "DiamondCut",
      "type": "event"
    },
    {
      "inputs": [
        {
          "components": [
            {
              "internalType": "address",
              "name": "facetAddress",
              "type": "address"
            },
            {
              "internalType": "enum IDiamondCut.FacetCutAction",
              "name": "action",
              "type": "uint8"
            },
            {
              "internalType": "bytes4[]",
              "name": "functionSelectors",
              "type": "bytes4[]"
            }
          ],
          "internalType": "struct IDiamondCut.FacetCut[]",
          "name": "_diamondCut",
          "type": "tuple[]"
        },
        {
          "internalType": "address",
          "name": "_init",
          "type": "address"
        },
        {
          "internalType": "bytes",
          "name": "_calldata",
          "type": "bytes"
        }
      ],
      "name": "diamondCut",
      "outputs": [],
      "stateMutability": "nonpayable",
      "type": "function"
    }
  ],
  "bytecode": "0x608060405234801561001057600080fd5b50612514806100206000396000f3fe608060405234801561001057600080fd5b506004361061002b5760003560e01c80631f931c1c14610030575b600080fd5b61004a600480360381019061004591906112ed565b61004c565b005b6100546100b6565b6100af858590610064919061168b565b8484848080601f016020809104026020016040519081016040528093929190818152602001838380828437600081840152601f19601f82011690508083019250505050505050610151565b5050505050565b6100be610380565b60030160009054906101000a900473ffffffffffffffffffffffffffffffffffffffff1673ffffffffffffffffffffffffffffffffffffffff163373ffffffffffffffffffffffffffffffffffffffff161461014f576040517f08c379a000000000000000000000000000000000000000000000000000000000815260040161014690611723565b60405180910390fd5b565b60005b835181101561033557600084828151811061017257610171611743565b5b60200260200101516020015190506000600281111561019457610193611772565b5b8160028111156101a7576101a6611772565b5b036101f7576101f28583815181106101c2576101c1611743565b5b6020026020010151600001518684815181106101e1576101e0611743565b5b6020026020010151604001516103ad565b610321565b6001600281111561020b5761020a611772565b5b81600281111561021e5761021d611772565b5b0361026e5761026985838151811061023957610238611743565b5b60200260200101516000015186848151811061025857610257611743565b5b602002602001015160400151610715565b610320565b60028081111561028157610280611772565b5b81600281111561029457610293611772565b5b036102e4576102df8583815181106102af576102ae611743565b5b6020026020010151600001518684815181106102ce576102cd611743565b5b602002602001015160400151610a97565b61031f565b6040517f08c379a000000000000000000000000000000000000000000000000000000000815260040161031690611813565b60405180910390fd5b5b5b50808061032d9061186c565b915050610154565b507f8faa70878671ccd212d20771b795c50af8fd3ff6cf27f4bde57e5d4de0aeb67383838360405161036993929190611b72565b60405180910390a161037b8282610f5c565b505050565b6000807fc8fcad8db84d3cc18b4c41d551ea0ee66dd599cde068d998e57d5e09332c131c90508091505090565b60008151116103f1576040517f08c379a00000000000000000000000000000000000000000000000000000000081526004016103e890611c29565b60405180910390fd5b60006103fb610380565b9050600081600101805490509050600073ffffffffffffffffffffffffffffffffffffffff168473ffffffffffffffffffffffffffffffffffffffff1603610478576040517f08c379a000000000000000000000000000000000000000000000000000000000815260040161046f90611cbb565b60405180910390fd5b61049a8460405180606001604052806024815260200161246b6024913961116e565b60005b835181101561070e5760008482815181106104bb576104ba611743565b5b602002602001015190506000846000016000837bffffffffffffffffffffffffffffffffffffffffffffffffffffffff19167bffffffffffffffffffffffffffffffffffffffffffffffffffffffff1916815260200190815260200160002060000160009054906101000a900473ffffffffffffffffffffffffffffffffffffffff169050600073ffffffffffffffffffffffffffffffffffffffff168173ffffffffffffffffffffffffffffffffffffffff16146105af576040517f08c379a00000000000000000000000000000000000000000000000000000000081526004016105a690611d4d565b60405180910390fd5b60405180604001604052808873ffffffffffffffffffffffffffffffffffffffff1681526020018561ffff16815250856000016000847bffffffffffffffffffffffffffffffffffffffffffffffffffffffff19167bffffffffffffffffffffffffffffffffffffffffffffffffffffffff1916815260200190815260200160002060008201518160000160006101000a81548173ffffffffffffffffffffffffffffffffffffffff021916908373ffffffffffffffffffffffffffffffffffffffff16021790555060208201518160000160146101000a81548161ffff021916908361ffff160217905550905050846001018290806001815401808255809150506001900390600052602060002090600891828204019190066004029091909190916101000a81548163ffffffff021916908360e01c021790555083806106f690611d7b565b945050505080806107069061186c565b91505061049d565b5050505050565b6000815111610759576040517f08c379a000000000000000000000000000000000000000000000000000000000815260040161075090611c29565b60405180910390fd5b6000610763610380565b9050600073ffffffffffffffffffffffffffffffffffffffff168373ffffffffffffffffffffffffffffffffffffffff16036107d4576040517f08c379a00000000000000000000000000000000000000000000000000000000081526004016107cb90611e17565b60405180910390fd5b6107f6836040518060600160405280602881526020016124b76028913961116e565b60005b8251811015610a9157600083828151811061081757610816611743565b5b602002602001015190506000836000016000837bffffffffffffffffffffffffffffffffffffffffffffffffffffffff19167bffffffffffffffffffffffffffffffffffffffffffffffffffffffff1916815260200190815260200160002060000160009054906101000a900473ffffffffffffffffffffffffffffffffffffffff1690503073ffffffffffffffffffffffffffffffffffffffff168173ffffffffffffffffffffffffffffffffffffffff160361090a576040517f08c379a000000000000000000000000000000000000000000000000000000000815260040161090190611ea9565b60405180910390fd5b8573ffffffffffffffffffffffffffffffffffffffff168173ffffffffffffffffffffffffffffffffffffffff1603610978576040517f08c379a000000000000000000000000000000000000000000000000000000000815260040161096f90611f3b565b60405180910390fd5b600073ffffffffffffffffffffffffffffffffffffffff168173ffffffffffffffffffffffffffffffffffffffff16036109e7576040517f08c379a00000000000000000000000000000000000000000000000000000000081526004016109de90611fcd565b60405180910390fd5b85846000016000847bffffffffffffffffffffffffffffffffffffffffffffffffffffffff19167bffffffffffffffffffffffffffffffffffffffffffffffffffffffff1916815260200190815260200160002060000160006101000a81548173ffffffffffffffffffffffffffffffffffffffff021916908373ffffffffffffffffffffffffffffffffffffffff16021790555050508080610a899061186c565b9150506107f9565b50505050565b6000815111610adb576040517f08c379a0000000000000000000000000000000000000000000000000000000008152600401610ad290611c29565b60405180910390fd5b6000610ae5610380565b9050600081600101805490509050600073ffffffffffffffffffffffffffffffffffffffff168473ffffffffffffffffffffffffffffffffffffffff1614610b62576040517f08c379a0000000000000000000000000000000000000000000000000000000008152600401610b599061205f565b60405180910390fd5b60005b8351811015610f55576000848281518110610b8357610b82611743565b5b602002602001015190506000846000016000837bffffffffffffffffffffffffffffffffffffffffffffffffffffffff19167bffffffffffffffffffffffffffffffffffffffffffffffffffffffff191681526020019081526020016000206040518060400160405290816000820160009054906101000a900473ffffffffffffffffffffffffffffffffffffffff1673ffffffffffffffffffffffffffffffffffffffff1673ffffffffffffffffffffffffffffffffffffffff1681526020016000820160149054906101000a900461ffff1661ffff1661ffff16815250509050600073ffffffffffffffffffffffffffffffffffffffff16816000015173ffffffffffffffffffffffffffffffffffffffff1603610cd8576040517f08c379a0000000000000000000000000000000000000000000000000000000008152600401610ccf906120f1565b60405180910390fd5b3073ffffffffffffffffffffffffffffffffffffffff16816000015173ffffffffffffffffffffffffffffffffffffffff1603610d4a576040517f08c379a0000000000000000000000000000000000000000000000000000000008152600401610d4190612183565b60405180910390fd5b8380610d55906121a3565b94505083816020015161ffff1614610e6a576000856001018581548110610d7f57610d7e611743565b5b90600052602060002090600891828204019190066004029054906101000a900460e01b90508086600101836020015161ffff1681548110610dc357610dc2611743565b5b90600052602060002090600891828204019190066004026101000a81548163ffffffff021916908360e01c02179055508160200151866000016000837bffffffffffffffffffffffffffffffffffffffffffffffffffffffff19167bffffffffffffffffffffffffffffffffffffffffffffffffffffffff1916815260200190815260200160002060000160146101000a81548161ffff021916908361ffff160217905550505b84600101805480610e7e57610e7d6121cc565b5b60019003818190600052602060002090600891828204019190066004026101000a81549063ffffffff02191690559055846000016000837bffffffffffffffffffffffffffffffffffffffffffffffffffffffff19167bffffffffffffffffffffffffffffffffffffffffffffffffffffffff19168152602001908152602001600020600080820160006101000a81549073ffffffffffffffffffffffffffffffffffffffff02191690556000820160146101000a81549061ffff0219169055505050508080610f4d9061186c565b915050610b65565b5050505050565b600073ffffffffffffffffffffffffffffffffffffffff168273ffffffffffffffffffffffffffffffffffffffff1603610fd9576000815114610fd4576040517f08c379a0000000000000000000000000000000000000000000000000000000008152600401610fcb9061226d565b60405180910390fd5b61116a565b600081511161101d576040517f08c379a0000000000000000000000000000000000000000000000000000000008152600401611014906122ff565b60405180910390fd5b3073ffffffffffffffffffffffffffffffffffffffff168273ffffffffffffffffffffffffffffffffffffffff1614611073576110728260405180606001604052806028815260200161248f6028913961116e565b5b6000808373ffffffffffffffffffffffffffffffffffffffff168360405161109b919061235b565b600060405180830381855af49150503d80600081146110d6576040519150601f19603f3d011682016040523d82523d6000602084013e6110db565b606091505b5091509150816111675760008151111561112c57806040517f08c379a000000000000000000000000000000000000000000000000000000000815260040161112391906123b6565b60405180910390fd5b6040517f08c379a000000000000000000000000000000000000000000000000000000000815260040161115e9061244a565b60405180910390fd5b50505b5050565b6000823b90506000811182906111ba576040517f08c379a00000000000000000000000000000000000000000000000000000000081526004016111b191906123b6565b60405180910390fd5b50505050565b6000604051905090565b600080fd5b600080fd5b600080fd5b600080fd5b600080fd5b60008083601f8401126111f9576111f86111d4565b5b8235905067ffffffffffffffff811115611216576112156111d9565b5b602083019150836020820283011115611232576112316111de565b5b9250929050565b600073ffffffffffffffffffffffffffffffffffffffff82169050919050565b600061126482611239565b9050919050565b61127481611259565b811461127f57600080fd5b50565b6000813590506112918161126b565b92915050565b60008083601f8401126112ad576112ac6111d4565b5b8235905067ffffffffffffffff8111156112ca576112c96111d9565b5b6020830191508360018202830111156112e6576112e56111de565b5b9250929050565b600080600080600060608688031215611309576113086111ca565b5b600086013567ffffffffffffffff811115611327576113266111cf565b5b611333888289016111e3565b9550955050602061134688828901611282565b935050604086013567ffffffffffffffff811115611367576113666111cf565b5b61137388828901611297565b92509250509295509295909350565b6000601f19601f8301169050919050565b7f4e487b7100000000000000000000000000000000000000000000000000000000600052604160045260246000fd5b6113cb82611382565b810181811067ffffffffffffffff821117156113ea576113e9611393565b5b80604052505050565b60006113fd6111c0565b905061140982826113c2565b919050565b600067ffffffffffffffff82111561142957611428611393565b5b602082029050602081019050919050565b600080fd5b600080fd5b6003811061145157600080fd5b50565b60008135905061146381611444565b92915050565b600067ffffffffffffffff82111561148457611483611393565b5b602082029050602081019050919050565b60007fffffffff0000000000000000000000000000000000000000000000000000000082169050919050565b6114ca81611495565b81146114d557600080fd5b50565b6000813590506114e7816114c1565b92915050565b60006115006114fb84611469565b6113f3565b90508083825260208201905060208402830185811115611523576115226111de565b5b835b8181101561154c578061153888826114d8565b845260208401935050602081019050611525565b5050509392505050565b600082601f83011261156b5761156a6111d4565b5b813561157b8482602086016114ed565b91505092915050565b60006060828403121561159a5761159961143a565b5b6115a460606113f3565b905060006115b484828501611282565b60008301525060206115c884828501611454565b602083015250604082013567ffffffffffffffff8111156115ec576115eb61143f565b5b6115f884828501611556565b60408301525092915050565b60006116176116128461140e565b6113f3565b9050808382526020820190506020840283018581111561163a576116396111de565b5b835b8181101561168157803567ffffffffffffffff81111561165f5761165e6111d4565b5b80860161166c8982611584565b8552602085019450505060208101905061163c565b5050509392505050565b6000611698368484611604565b905092915050565b600082825260208201905092915050565b7f4c69624469616d6f6e643a204d75737420626520636f6e7472616374206f776e60008201527f6572000000000000000000000000000000000000000000000000000000000000602082015250565b600061170d6022836116a0565b9150611718826116b1565b604082019050919050565b6000602082019050818103600083015261173c81611700565b9050919050565b7f4e487b7100000000000000000000000000000000000000000000000000000000600052603260045260246000fd5b7f4e487b7100000000000000000000000000000000000000000000000000000000600052602160045260246000fd5b7f4c69624469616d6f6e644375743a20496e636f7272656374204661636574437560008201527f74416374696f6e00000000000000000000000000000000000000000000000000602082015250565b60006117fd6027836116a0565b9150611808826117a1565b604082019050919050565b6000602082019050818103600083015261182c816117f0565b9050919050565b7f4e487b7100000000000000000000000000000000000000000000000000000000600052601160045260246000fd5b6000819050919050565b600061187782611862565b91507fffffffffffffffffffffffffffffffffffffffffffffffffffffffffffffffff82036118a9576118a8611833565b5b600182019050919050565b600081519050919050565b600082825260208201905092915050565b6000819050602082019050919050565b6118e981611259565b82525050565b60038110611900576118ff611772565b5b50565b6000819050611911826118ef565b919050565b600061192182611903565b9050919050565b61193181611916565b82525050565b600081519050919050565b600082825260208201905092915050565b6000819050602082019050919050565b61196c81611495565b82525050565b600061197e8383611963565b60208301905092915050565b6000602082019050919050565b60006119a282611937565b6119ac8185611942565b93506119b783611953565b8060005b838110156119e85781516119cf8882611972565b97506119da8361198a565b9250506001810190506119bb565b5085935050505092915050565b6000606083016000830151611a0d60008601826118e0565b506020830151611a206020860182611928565b5060408301518482036040860152611a388282611997565b9150508091505092915050565b6000611a5183836119f5565b905092915050565b6000602082019050919050565b6000611a71826118b4565b611a7b81856118bf565b935083602082028501611a8d856118d0565b8060005b85811015611ac95784840389528151611aaa8582611a45565b9450611ab583611a59565b925060208a01995050600181019050611a91565b50829750879550505050505092915050565b611ae481611259565b82525050565b600081519050919050565b600082825260208201905092915050565b60005b83811015611b24578082015181840152602081019050611b09565b83811115611b33576000848401525b50505050565b6000611b4482611aea565b611b4e8185611af5565b9350611b5e818560208601611b06565b611b6781611382565b840191505092915050565b60006060820190508181036000830152611b8c8186611a66565b9050611b9b6020830185611adb565b8181036040830152611bad8184611b39565b9050949350505050565b7f4c69624469616d6f6e644375743a204e6f2073656c6563746f727320696e206660008201527f6163657420746f20637574000000000000000000000000000000000000000000602082015250565b6000611c13602b836116a0565b9150611c1e82611bb7565b604082019050919050565b60006020820190508181036000830152611c4281611c06565b9050919050565b7f4c69624469616d6f6e644375743a204164642066616365742063616e2774206260008201527f6520616464726573732830290000000000000000000000000000000000000000602082015250565b6000611ca5602c836116a0565b9150611cb082611c49565b604082019050919050565b60006020820190508181036000830152611cd481611c98565b9050919050565b7f4c69624469616d6f6e644375743a2043616e2774206164642066756e6374696f60008201527f6e207468617420616c7265616479206578697374730000000000000000000000602082015250565b6000611d376035836116a0565b9150611d4282611cdb565b604082019050919050565b60006020820190508181036000830152611d6681611d2a565b9050919050565b600061ffff82169050919050565b6000611d8682611d6d565b915061ffff8203611d9a57611d99611833565b5b600182019050919050565b7f4c69624469616d6f6e644375743a205265706c6163652066616365742063616e60008201527f2774206265206164647265737328302900000000000000000000000000000000602082015250565b6000611e016030836116a0565b9150611e0c82611da5565b604082019050919050565b60006020820190508181036000830152611e3081611df4565b9050919050565b7f4c69624469616d6f6e644375743a2043616e2774207265706c61636520696d6d60008201527f757461626c652066756e6374696f6e0000000000000000000000000000000000602082015250565b6000611e93602f836116a0565b9150611e9e82611e37565b604082019050919050565b60006020820190508181036000830152611ec281611e86565b9050919050565b7f4c69624469616d6f6e644375743a2043616e2774207265706c6163652066756e60008201527f6374696f6e20776974682073616d652066756e6374696f6e0000000000000000602082015250565b6000611f256038836116a0565b9150611f3082611ec9565b604082019050919050565b60006020820190508181036000830152611f5481611f18565b9050919050565b7f4c69624469616d6f6e644375743a2043616e2774207265706c6163652066756e60008201527f6374696f6e207468617420646f65736e27742065786973740000000000000000602082015250565b6000611fb76038836116a0565b9150611fc282611f5b565b604082019050919050565b60006020820190508181036000830152611fe681611faa565b9050919050565b7f4c69624469616d6f6e644375743a2052656d6f7665206661636574206164647260008201527f657373206d757374206265206164647265737328302900000000000000000000602082015250565b60006120496036836116a0565b915061205482611fed565b604082019050919050565b600060208201905081810360008301526120788161203c565b9050919050565b7f4c69624469616d6f6e644375743a2043616e27742072656d6f76652066756e6360008201527f74696f6e207468617420646f65736e2774206578697374000000000000000000602082015250565b60006120db6037836116a0565b91506120e68261207f565b604082019050919050565b6000602082019050818103600083015261210a816120ce565b9050919050565b7f4c69624469616d6f6e644375743a2043616e27742072656d6f766520696d6d7560008201527f7461626c652066756e6374696f6e2e0000000000000000000000000000000000602082015250565b600061216d602f836116a0565b915061217882612111565b604082019050919050565b6000602082019050818103600083015261219c81612160565b9050919050565b60006121ae82611862565b9150600082036121c1576121c0611833565b5b600182039050919050565b7f4e487b7100000000000000000000000000000000000000000000000000000000600052603160045260246000fd5b7f4c69624469616d6f6e644375743a205f696e697420697320616464726573732860008201527f3029206275745f63616c6c64617461206973206e6f7420656d70747900000000602082015250565b6000612257603c836116a0565b9150612262826121fb565b604082019050919050565b600060208201905081810360008301526122868161224a565b9050919050565b7f4c69624469616d6f6e644375743a205f63616c6c6461746120697320656d707460008201527f7920627574205f696e6974206973206e6f742061646472657373283029000000602082015250565b60006122e9603d836116a0565b91506122f48261228d565b604082019050919050565b60006020820190508181036000830152612318816122dc565b9050919050565b600081905092915050565b600061233582611aea565b61233f818561231f565b935061234f818560208601611b06565b80840191505092915050565b6000612367828461232a565b915081905092915050565b600081519050919050565b600061238882612372565b61239281856116a0565b93506123a2818560208601611b06565b6123ab81611382565b840191505092915050565b600060208201905081810360008301526123d0818461237d565b905092915050565b7f4c69624469616d6f6e644375743a205f696e69742066756e6374696f6e20726560008201527f7665727465640000000000000000000000000000000000000000000000000000602082015250565b60006124346026836116a0565b915061243f826123d8565b604082019050919050565b6000602082019050818103600083015261246381612427565b905091905056fe4c69624469616d6f6e644375743a2041646420666163657420686173206e6f20636f64654c69624469616d6f6e644375743a205f696e6974206164647265737320686173206e6f20636f64654c69624469616d6f6e644375743a205265706c61636520666163657420686173206e6f20636f6465a26469706673582212205cc62c515c119991753bb262c3d4ebc55087cf2c903eee04afc69a97fd54961064736f6c634300080d0033",
  "linkReferences": {},
  "deployedLinkReferences": {}
}