{
  "_format": "hh-sol-artifact-1",
  "contractName": "PlayerFacet",
  "sourceName": "contracts/facets/PlayerFacet.sol",
  "abi": [
    {
      "anonymous": false,
      "inputs": [
        {
          "indexed": false,
          "internalType": "address",
          "name": "player",
          "type": "address"
        }
      ],
      "name": "LevelUpEvent",
      "type": "event"
    },
    {
      "inputs": [
        {
          "internalType": "address",
          "name": "playerAddress",
          "type": "address"
        }
      ],
      "name": "addPlayer",
      "outputs": [],
      "stateMutability": "nonpayable",
      "type": "function"
    },
    {
      "inputs": [
        {
          "internalType": "address",
          "name": "playerAddress",
          "type": "address"
        }
      ],
      "name": "levelUp",
      "outputs": [],
      "stateMutability": "nonpayable",
      "type": "function"
    },
    {
      "inputs": [
        {
          "internalType": "address",
          "name": "playerAddress",
          "type": "address"
        }
      ],
      "name": "player",
      "outputs": [
        {
          "components": [
            {
              "internalType": "address",
              "name": "id",
              "type": "address"
            },
            {
              "internalType": "uint256",
              "name": "createdAt",
              "type": "uint256"
            },
            {
              "internalType": "uint256[]",
              "name": "balances",
              "type": "uint256[]"
            }
          ],
          "internalType": "struct PlayerFacet.PlayerInfo",
          "name": "_player",
          "type": "tuple"
        }
      ],
      "stateMutability": "view",
      "type": "function"
    },
    {
      "inputs": [
        {
          "internalType": "address",
          "name": "playerAddress",
          "type": "address"
        }
      ],
      "name": "removePlayer",
      "outputs": [],
      "stateMutability": "nonpayable",
      "type": "function"
    }
  ],
  "bytecode": "0x608060405234801561001057600080fd5b506117ef806100206000396000f3fe608060405234801561001057600080fd5b506004361061004c5760003560e01c80634c54e1b5146100515780635bb12a1a14610081578063b1275f9a1461009d578063e18b551c146100b9575b600080fd5b61006b60048036038101906100669190611061565b6100d5565b60405161007891906111b5565b60405180910390f35b61009b60048036038101906100969190611061565b610370565b005b6100b760048036038101906100b29190611061565b6105d3565b005b6100d360048036038101906100ce9190611061565b61085a565b005b6100dd610fc7565b81600073ffffffffffffffffffffffffffffffffffffffff168173ffffffffffffffffffffffffffffffffffffffff160361014d576040517f08c379a00000000000000000000000000000000000000000000000000000000081526004016101449061125a565b60405180910390fd5b60008060130160008373ffffffffffffffffffffffffffffffffffffffff1673ffffffffffffffffffffffffffffffffffffffff16815260200190815260200160002060000154116101d4576040517f08c379a00000000000000000000000000000000000000000000000000000000081526004016101cb906112ec565b60405180910390fd5b82826000019073ffffffffffffffffffffffffffffffffffffffff16908173ffffffffffffffffffffffffffffffffffffffff1681525050600060130160008473ffffffffffffffffffffffffffffffffffffffff1673ffffffffffffffffffffffffffffffffffffffff168152602001908152602001600020600001548260200181815250506001600060040180549050610270919061133b565b67ffffffffffffffff81111561028957610288611391565b5b6040519080825280602002602001820160405280156102b75781602001602082028036833780820191505090505b50826040018190525060005b60016000600401805490506102d8919061133b565b811015610369576000600701600082815260200190815260200160002060008573ffffffffffffffffffffffffffffffffffffffff1673ffffffffffffffffffffffffffffffffffffffff168152602001908152602001600020548360400151828151811061034a576103496113c0565b5b6020026020010181815250508080610361906113ef565b9150506102c3565b5050919050565b6000806012016000610380610a4f565b73ffffffffffffffffffffffffffffffffffffffff1673ffffffffffffffffffffffffffffffffffffffff1681526020019081526020016000206000015411806104215750600060010160009054906101000a900473ffffffffffffffffffffffffffffffffffffffff1673ffffffffffffffffffffffffffffffffffffffff16610409610a4f565b73ffffffffffffffffffffffffffffffffffffffff16145b610460576040517f08c379a0000000000000000000000000000000000000000000000000000000008152600401610457906114a9565b60405180910390fd5b80600073ffffffffffffffffffffffffffffffffffffffff168173ffffffffffffffffffffffffffffffffffffffff16036104d0576040517f08c379a00000000000000000000000000000000000000000000000000000000081526004016104c79061125a565b60405180910390fd5b60008060130160008373ffffffffffffffffffffffffffffffffffffffff1673ffffffffffffffffffffffffffffffffffffffff1681526020019081526020016000206000015411610557576040517f08c379a000000000000000000000000000000000000000000000000000000000815260040161054e906112ec565b60405180910390fd5b600060130160008373ffffffffffffffffffffffffffffffffffffffff1673ffffffffffffffffffffffffffffffffffffffff168152602001908152602001600020600080820160009055600182016000905560028201600090555050600060150160008154809291906105ca906114c9565b91905055505050565b60008060120160006105e3610a4f565b73ffffffffffffffffffffffffffffffffffffffff1673ffffffffffffffffffffffffffffffffffffffff1681526020019081526020016000206000015411806106845750600060010160009054906101000a900473ffffffffffffffffffffffffffffffffffffffff1673ffffffffffffffffffffffffffffffffffffffff1661066c610a4f565b73ffffffffffffffffffffffffffffffffffffffff16145b6106c3576040517f08c379a00000000000000000000000000000000000000000000000000000000081526004016106ba906114a9565b60405180910390fd5b80600073ffffffffffffffffffffffffffffffffffffffff168173ffffffffffffffffffffffffffffffffffffffff1603610733576040517f08c379a000000000000000000000000000000000000000000000000000000000815260040161072a9061125a565b60405180910390fd5b60008060130160008373ffffffffffffffffffffffffffffffffffffffff1673ffffffffffffffffffffffffffffffffffffffff1681526020019081526020016000206000015411156107bb576040517f08c379a00000000000000000000000000000000000000000000000000000000081526004016107b290611564565b60405180910390fd5b6040518060600160405280428152602001600081526020016000815250600060130160008473ffffffffffffffffffffffffffffffffffffffff1673ffffffffffffffffffffffffffffffffffffffff16815260200190815260200160002060008201518160000155602082015181600101556040820151816002015590505060006015016000815480929190610851906113ef565b91905055505050565b600080601201600061086a610a4f565b73ffffffffffffffffffffffffffffffffffffffff1673ffffffffffffffffffffffffffffffffffffffff16815260200190815260200160002060000154118061090b5750600060010160009054906101000a900473ffffffffffffffffffffffffffffffffffffffff1673ffffffffffffffffffffffffffffffffffffffff166108f3610a4f565b73ffffffffffffffffffffffffffffffffffffffff16145b61094a576040517f08c379a0000000000000000000000000000000000000000000000000000000008152600401610941906114a9565b60405180910390fd5b80600073ffffffffffffffffffffffffffffffffffffffff168173ffffffffffffffffffffffffffffffffffffffff16036109ba576040517f08c379a00000000000000000000000000000000000000000000000000000000081526004016109b19061125a565b60405180910390fd5b60008060130160008373ffffffffffffffffffffffffffffffffffffffff1673ffffffffffffffffffffffffffffffffffffffff1681526020019081526020016000206000015411610a41576040517f08c379a0000000000000000000000000000000000000000000000000000000008152600401610a38906112ec565b60405180910390fd5b610a4a82610aff565b505050565b60003073ffffffffffffffffffffffffffffffffffffffff163373ffffffffffffffffffffffffffffffffffffffff1603610af857600080368080601f016020809104026020016040519081016040528093929190818152602001838380828437600081840152601f19601f820116905080830192505050505050509050600080369050905073ffffffffffffffffffffffffffffffffffffffff818301511692505050610afc565b3390505b90565b600080610b0a610c39565b90506000610b186064610c3e565b9050600080600190505b83600401805490508160ff161015610be857836010016000856004018360ff1681548110610b5357610b526113c0565b5b90600052602060002090602091828204019190069054906101000a900460ff166004811115610b8557610b84611584565b5b6004811115610b9757610b96611584565b5b815260200190815260200160002060009054906101000a900460ff1660ff168311610bd5578060ff166004811115610bd257610bd1611584565b5b91505b8080610be0906115c0565b915050610b22565b50826005016000826004811115610c0257610c01611584565b5b6004811115610c1457610c13611584565b5b8152602001908152602001600020549350610c3185856001610c80565b505050919050565b600090565b600081424433604051602001610c5693929190611652565b6040516020818303038152906040528051906020012060001c610c7991906116be565b9050919050565b6000610c8a610c39565b9050610ccd8484846040518060400160405280600381526020017f3078300000000000000000000000000000000000000000000000000000000000815250610d2e565b818160130160008673ffffffffffffffffffffffffffffffffffffffff1673ffffffffffffffffffffffffffffffffffffffff1681526020019081526020016000206001016000828254610d21919061133b565b9250508190555050505050565b6000610d38610c39565b9050600073ffffffffffffffffffffffffffffffffffffffff168573ffffffffffffffffffffffffffffffffffffffff1603610da9576040517f08c379a0000000000000000000000000000000000000000000000000000000008152600401610da090611761565b60405180910390fd5b6000610db3610edb565b90506000610dc086610ee3565b90506000610dcd86610ee3565b9050610dde8360008a85858a610f5d565b8584600701600089815260200190815260200160002060008a73ffffffffffffffffffffffffffffffffffffffff1673ffffffffffffffffffffffffffffffffffffffff1681526020019081526020016000206000828254610e40919061133b565b925050819055508773ffffffffffffffffffffffffffffffffffffffff16600073ffffffffffffffffffffffffffffffffffffffff168473ffffffffffffffffffffffffffffffffffffffff167fc3d58168c5ae7397731d063d5bbf3d657854427343f4c083240f7aacaa2d0f628a8a604051610ebe929190611790565b60405180910390a4610ed1600082610f65565b5050505050505050565b600033905090565b60606000600167ffffffffffffffff811115610f0257610f01611391565b5b604051908082528060200260200182016040528015610f305781602001602082028036833780820191505090505b5090508281600081518110610f4857610f476113c0565b5b60200260200101818152505080915050919050565b505050505050565b600073ffffffffffffffffffffffffffffffffffffffff168273ffffffffffffffffffffffffffffffffffffffff1603610fc3576000610fa3610c39565b9050815181600a016000828254610fba919061133b565b92505081905550505b5050565b6040518060600160405280600073ffffffffffffffffffffffffffffffffffffffff16815260200160008152602001606081525090565b600080fd5b600073ffffffffffffffffffffffffffffffffffffffff82169050919050565b600061102e82611003565b9050919050565b61103e81611023565b811461104957600080fd5b50565b60008135905061105b81611035565b92915050565b60006020828403121561107757611076610ffe565b5b60006110858482850161104c565b91505092915050565b61109781611023565b82525050565b6000819050919050565b6110b08161109d565b82525050565b600081519050919050565b600082825260208201905092915050565b6000819050602082019050919050565b60006110ee83836110a7565b60208301905092915050565b6000602082019050919050565b6000611112826110b6565b61111c81856110c1565b9350611127836110d2565b8060005b8381101561115857815161113f88826110e2565b975061114a836110fa565b92505060018101905061112b565b5085935050505092915050565b600060608301600083015161117d600086018261108e565b50602083015161119060208601826110a7565b50604083015184820360408601526111a88282611107565b9150508091505092915050565b600060208201905081810360008301526111cf8184611165565b905092915050565b600082825260208201905092915050565b7f4e4f545f414c4c4f5745443a20506c617965722061646472657373206973206e60008201527f6f742076616c6964000000000000000000000000000000000000000000000000602082015250565b60006112446028836111d7565b915061124f826111e8565b604082019050919050565b6000602082019050818103600083015261127381611237565b9050919050565b7f4e4f545f414c4c4f5745443a20506c6179657220646f6573206e6f742065786960008201527f7374000000000000000000000000000000000000000000000000000000000000602082015250565b60006112d66022836111d7565b91506112e18261127a565b604082019050919050565b60006020820190508181036000830152611305816112c9565b9050919050565b7f4e487b7100000000000000000000000000000000000000000000000000000000600052601160045260246000fd5b60006113468261109d565b91506113518361109d565b9250827fffffffffffffffffffffffffffffffffffffffffffffffffffffffffffffffff038211156113865761138561130c565b5b828201905092915050565b7f4e487b7100000000000000000000000000000000000000000000000000000000600052604160045260246000fd5b7f4e487b7100000000000000000000000000000000000000000000000000000000600052603260045260246000fd5b60006113fa8261109d565b91507fffffffffffffffffffffffffffffffffffffffffffffffffffffffffffffffff820361142c5761142b61130c565b5b600182019050919050565b7f4e4f545f414c4c4f5745443a204f6e6c792047616c6c696f6e2063616e20636160008201527f6c6c20746869732066756e6374696f6e00000000000000000000000000000000602082015250565b60006114936030836111d7565b915061149e82611437565b604082019050919050565b600060208201905081810360008301526114c281611486565b9050919050565b60006114d48261109d565b9150600082036114e7576114e661130c565b5b600182039050919050565b7f4e4f545f414c4c4f5745443a20506c6179657220616c7265616479206578697360008201527f7473000000000000000000000000000000000000000000000000000000000000602082015250565b600061154e6022836111d7565b9150611559826114f2565b604082019050919050565b6000602082019050818103600083015261157d81611541565b9050919050565b7f4e487b7100000000000000000000000000000000000000000000000000000000600052602160045260246000fd5b600060ff82169050919050565b60006115cb826115b3565b915060ff82036115de576115dd61130c565b5b600182019050919050565b6000819050919050565b6116046115ff8261109d565b6115e9565b82525050565b60008160601b9050919050565b60006116228261160a565b9050919050565b600061163482611617565b9050919050565b61164c61164782611023565b611629565b82525050565b600061165e82866115f3565b60208201915061166e82856115f3565b60208201915061167e828461163b565b601482019150819050949350505050565b7f4e487b7100000000000000000000000000000000000000000000000000000000600052601260045260246000fd5b60006116c98261109d565b91506116d48361109d565b9250826116e4576116e361168f565b5b828206905092915050565b7f455243313135353a206d696e7420746f20746865207a65726f2061646472657360008201527f7300000000000000000000000000000000000000000000000000000000000000602082015250565b600061174b6021836111d7565b9150611756826116ef565b604082019050919050565b6000602082019050818103600083015261177a8161173e565b9050919050565b61178a8161109d565b82525050565b60006040820190506117a56000830185611781565b6117b26020830184611781565b939250505056fea2646970667358221220c6645d022b7d0e66d7e01a16f2182ddc7f6e781470d17d516228019395047f6564736f6c634300080d0033",
  "linkReferences": {},
  "deployedLinkReferences": {}
}